:0400000079EF01F0A3
:06000800428252EF06F0F7
:100018004280D8CF15F0E8CF16F0E0CF17F0E1CF47
:1000280018F0E2CF19F0D9CF1AF0DACF1BF09EBA48
:100038009DAA61D0ABA00CD0AECF1DF0AECF1DF005
:10004800000E316EAB98AB9E9D9A020E2A6E52D06E
:10005800AECF1DF0000E3124D96EDA6A010EDA2215
:100068001DC0DFFF312A00F000F000F000F000F0C2
:1000780000F09EAA0BD0AECF1DF0000E3124D96E31
:10008800DA6A010EDA221DC0DFFF312A7E0E010175
:100098000019D8B402D0000E316E020E3118D8A45F
:1000A80009D07E0E0019D8B405D00129D8B402D0E1
:1000B800000E316E090E31641DD0EF0E0919D8A457
:1000C80017D0010E0001876F000E1D6E090E1D640A
:1000D80001D00ED0000E1D24D96EDA6A010EDA2284
:1000E8001D50A00FE16EE26ADFCFE7FF1D2AEED7B1
:1000F800000E316E9E9A9EB89DA819D09E98000158
:100108007A51D8B411D00A0E2F24D96EDA6A010EAA
:10011800DA22DF50AD6E2F2AC80E2F18D8A402D0CD
:10012800000E2F6E7A0703D0000E7B6F9D98F2B4F5
:10013800F2AA59D0F29400017C89000ED66E0C0EFA
:10014800D76E2C50D8A402D0010E01D0000E2C6E10
:100158007D51D8B40BD08CB003D0136A132A01D0C8
:10016800136A8C501318FE0B13188C6E0001835100
:10017800D8A483073950D8A439062C50D8B433D022
:100188007C8B952B732B090E73650BD0010E746F46
:10019800000E736F332A080E336402D0010E336EDB
:1001A8007C8D69516A11D8B403D06907D8A06A0751
:1001B80035A013D07E51D8B410D0802B130E806593
:1001C80012D07F2B0B0E7F6103D0000E756F0BD002
:1001D800010E7D6F0A0E7F6F06D0000E806F000E35
:1001E8007F6F000E7D6F9EB09DA06FD02B2A9E90D2
:1001F800F60ECF6E3C0ECE6E00017C810A0E0F6E9D
:100208002B50D8EC0BF00009D8A402D000017C8553
:10021800140E0F6E2B50D8EC0BF00009D8A41CD08C
:1002280000017C879351D8A493072D50D8B406D0E9
:100238002D062D50D8A402D0010E796F2A50D8B4BB
:100248000BD02A062A50D8A407D0AB88AB8EAECFE5
:100258001DF0AECF1DF09D8A00016B516C11D8B412
:1002680003D06B07D8A06C0726C027F025C026F05E
:1002780082500F0B256E000E1D6E030E1D6401D0FB
:1002880024D01DC013F0010E146E132A02D0D8908A
:100298001436132EFCD714501C6E27501C14136EE2
:1002A80026501C141318D8A40ED026501C14136EF4
:1002B80025501C141318D8A406D01C50FF0A351654
:1002C80027501C1435121D2AD8D71BC0DAFF1AC0B4
:1002D800D9FF19C0E2FF18C0E1FF17C0E0FF16C040
:1002E800E8FF15C0D8FF4290100031EF0AF0000E69
:1002F800C56F000EC96F000EC66F000EC76F245081
:10030800D96EDA6ADF50C86F400EC819D8A4CBD0AE
:100318002450D96EDA6A020ED9263D50DE18D8A4C8
:10032800C6D12450D96EDA6A040ED926DF50C66FBA
:100338002450D96EDA6A050ED926DF50C76FC65128
:10034800D8A402D0200EC66FC751D8A402D0200E60
:10035800C76F000ECC6F000ECB6F000ECA6FC00EB9
:10036800B16FFC0EB26F7F0EB36FCAC0BAF0CBC0CC
:10037800BBF0D890BA37BB37CCC01EF01F6A020E4C
:10038800216E080E206E01EC0CF0170E1E24BC6FB7
:10039800650E1F20BD6FBA51BC25BE6FBB51BD2174
:1003A800BF6FBEC0F6FFBFC0F7FF0900F5CFB4F0BE
:1003B8000A00F5CFB5F0CCEC08F0C051C619D8A4A6
:1003C8000BD0C751C119D8A407D0010EC56FCC29CD
:1003D8003C6ECA29416E10D0300EC019D8A404D082
:1003E800300EC119D8B408D0CA4BCB2B040ECA5D45
:1003F800010ECB59D8A0B3D7C551D8A404D0CC2B63
:10040800020ECC65A8D7C551D8A451D1000ECC6F27
:10041800000ECB6F000ECA6FC00EB16FFC0EB26F2C
:100428007F0EB36FCAC0BAF0CBC0BBF0D890BA3752
:10043800BB37CC51340D2F0EF324BC6F6B0EF42058
:10044800BD6FBA51BC25BE6FBB51BD21BF6FBEC0C9
:10045800F6FFBFC0F7FF0900F5CFB4F00A00F5CFEB
:10046800B5F0CCEC08F0C051C619D8A40CD0C751CF
:10047800C119D8A408D0010EC56F030E3C6ECC512B
:10048800DD0F416E08D0CA4BCB2BCB5104E11A0EBD
:10049800CA5DD8A0C1D7C551D8A409D1CC2B190E93
:1004A800CC65B6D704D1420EC819D8A428D0245098
:1004B800D96EDA6A020ED9263D50DE18D8A4F7D0D4
:1004C8002450D96EDA6A050ED926DFB002D0000EA4
:1004D80007D02450D96EDA6A010ED926DF50330BC3
:1004E800C96FC9C0BAF0030EBA17020EBA6502D0B6
:1004F800000EC96FC9C03BF0010E3A6ED8D0440E49
:10050800C819D8A40AD03950D8A407D041C040F09F
:10051800010E386E0A0E396ECAD00E0EC819D8A44C
:10052800C6D02450D96EDA6A010ED926DF50C96FB9
:1005380080D02450D96EDA6A050ED926DF50D8B497
:1005480002D06F8995D06F9993D02450D96EDA6A0A
:10055800050ED926DF50D8B402D06F8789D06F979F
:1005680087D02450D96EDA6A050ED926DF508A6FF3
:100578001AD02450D96EDA6A050ED926DF50896F51
:1005880012D02450D96EDA6A050ED926DF50886F4A
:100598000AD0C951880AD8B4F4D7070AD8B4E9D719
:1005A8001F0AD8B4DED78A51891188110009D8B436
:1005B80002D06F855DD06F955BD02450D96EDA6A12
:1005C800050ED926DF50D8B402D06F8D51D06F9D5B
:1005D8004FD02450D96EDA6A050ED926DF50D8B428
:1005E80002D06F8B45D06F9B43D02450D96EDA6A06
:1005F800050ED926DF50D8B402D06F8F39D06F9F3F
:1006080037D02450D96EDA6A050ED926DF50D8B40F
:1006180002D070812DD070912BD02450D96EDA6A17
:10062800050ED926DF50D8B402D0708521D0709538
:100638001FD0C951050AD8B4F0D7030AD8B4D5D702
:10064800160AD8B476D7960AD8B4DBD7010AD8B434
:100658007CD70F0AD8B49DD7020AD8B4AED7050AFA
:10066800D8B497D71F0AD8B494D7030AD8B4B1D747
:100678006FC028F070C029F028502910D8B40DD0C8
:100688006D51281804E16E512918D8B410D028C02B
:100698006DF029C06EF0010E09D0000E296E000E13
:1006A800286E28C06DF029C06EF0000E8F6F38508C
:1006B800D8B404D0000E386E010E8E6F8D513B18E1
:1006C800D8B412003BC0BAF0330EBA17D8B412002F
:1006D8003A50D8B412003BC08DF0000E3A6E010EAD
:1006E8008C6F1200030E1F6EE80E1E6E7EEC0BF070
:1006F800A2EC0AF0010ED16E000EF26ED08E04004C
:100708001EEC0CF014EC0CF0000E1F6E190E1E6E91
:1007180066EC0BF04BEC0BF0000E926F030E6C6F57
:10072800E80E6B6F010E3D6EF28EF28C01D0040064
:1007380000016B516C11D8A4FAD7030E1F6EE80E96
:100748001E6E7EEC0BF0F0EC09F0010E00017E6FDE
:10075800000ED66F000E46EC08F0050E0001926FF1
:10076800040063C069F000016A6B040000017CA703
:1007780007D07D51D8B496EC0BF09EEC09F07C972D
:100788007CA906D0C3EC0BF0D1EC0AF000017C99EF
:100798008751D8B406D0A00E1E6E22EC07F0000ECA
:1007A800876F3750D8A480EC04F0030E000161195C
:1007B800D8A403D03CEC09F088D0050E9219D8A42F
:1007C80084D08351D8B482EC05F0020E6119D8A404
:1007D80047D069516A11D8A403D06351D8A41AD05C
:1007E8008151D8A417D0010EB16F62C0D5F0030EA5
:1007F800D517010ED525B26FB36B000EB323170EB4
:100808002BEC0BF0010E1F6EF40E1E6E7EEC0BF03F
:10081800010E1AD069516A11D8A418D06351D8B4FE
:1008280015D08151D8B412D0010EB16F000EB36F3C
:10083800050EB26F170E2BEC0BF0010E1F6EF40EA7
:100848001E6E7EEC0BF0000E0001816F3BC0D5F0F0
:10085800330ED517D8B439D063C069F06A6B35D078
:100868006105D8A41AD08151D8A42FD0010EB16F38
:1008780062C0D5F0030ED517010ED525B26FB36B44
:10088800000EB323170E2BEC0BF0010E1F6EF40EA7
:100898001E6E7EEC0BF0010E16D06151D8A415D057
:1008A8008151D8B412D0010EB16F000EB36F050E8E
:1008B800B26F170E2BEC0BF0010E1F6EF40E1E6EAE
:1008C8007EEC0BF0000E0001816F3F50D8B403D0CE
:1008D8009351D8B403D0140E956507D0000E3F6E1F
:1008E800000E956FD65146EC08F000018651D8A449
:1008F8003CD78C928C9439D7C2D08B510A0DD40E28
:10090800F324D96E010EF420DA6EDF50CD6FCD518D
:10091800D16FD26BD151D211D8B4C4D0050E92196F
:10092800D8A4C0D0000ED46F8B510A0DD40EF32476
:10093800CD6F010EF420CE6FD451CD25D96E000EA7
:10094800CE21DA6ED451AA0FE16EE26ADFCFE7FF5B
:10095800D42B060ED465E8D7AA0E246E7BEC01F0E2
:10096800A1D08B510A0DD30EF324D96E010EF420B9
:10097800DA6EDF50D46FD451D8A440D08B510A0D11
:10098800D50EF324D96E010EF420DA6EDF50CD6F48
:10099800CD51D16FD26B8B510A0DD70EF324D96E7E
:1009A800010EF420DA6EDF50D36FD151D211D8B4D2
:1009B8000CD0100ED119D211D8B407D0D351D8B455
:1009C80004D0100ED319D8A402D0918301D09193EA
:1009D800300ED119D211D8B40DD0400ED119D21180
:1009E800D8B408D0300ED319D8B404D0400ED319D7
:1009F800D8A402D091811ED091911CD0D405D8A43E
:100A08000BD08B510A0DD50EF324D96E010EF420AC
:100A1800DA6EDF50D76F0ED0020ED419D8A40AD0E0
:100A28008B510A0DD50EF324D96E010EF420DA6E1F
:100A3800DF50D86F9151D8B435D091A30AD0200E89
:100A4800D719D8B404D0200ED819D8A402D09083CE
:100A58000AD091A108D0500ED719D8B403D0500E9F
:100A6800D819D8B490819051D8B41CD0010E3E6EDC
:100A7800000E916F000ED86FD8C0D7F013D08B51ED
:100A88000A0DD20EF324D96E010EF420DA6EDF506F
:100A9800000AD8B407D0400AD8B463D7C00AD8B47B
:100AA8002CD7700AF29E300E8B6503D0000E8B6F28
:100AB80001D08B2B370636C0D4F037C0D3F0F28E76
:100AC8008B51D45DD8B002D0320ED427320E1E6EB0
:100AD800D351AEEC0BF00001CD6FCE6B8B51D4C06F
:100AE800CFF0D06BCF5F000ED05BCD51CF1904E1B2
:100AF800CE51D019D8B41200FF001200000EBA6F00
:100B0800000EB76F8E51D8B425D06251030DF3CFC4
:100B1800B4F0F4CFB5F03C50B425B86F000EB52151
:100B2800B96FB851B96FB86B000E8E6F6451D8B4F5
:100B38001200010EB16FB8514010B26FB951B36FC6
:100B4800250E2BEC0BF0080E836F000E866F010E3E
:100B5800726F12008C51D8B433D03BC0B4F0300E51
:100B6800B417D8B42DD06251030DF3CFB4F0F4CF3D
:100B7800B5F0030EB425B86F000EB521B96FB851A2
:100B8800B96FB86B3BA802D0CC0E03D03BAA02D0F9
:100B9800CD0EBA6F3BC0B4F0300EB417D8B4120003
:100BA800000E8C6F6551D8B41200010EB16FB851A8
:100BB800BA11B26FB951B36F250E2BEC0BF0C3D736
:100BC8003E50D8B429D09051D8B426D09005B76FEC
:100BD8006251030DF3CFB4F0F4CFB5F0030EB42592
:100BE800B86F000EB521B96FB851B96FB86BB7516E
:100BF800CE0FBA6F000E906F000E3E6E6651D8B4DD
:100C08001200010EB16FB851BA11B26FB951B36F7A
:100C1800250E2BEC0BF097D78F51D8B41200000E8D
:100C2800BA6FBAC0B4F028C0B5F029C0B6F0B42B7A
:100C380003D0D890B633B533B42FFBD70001B5A194
:100C480003D0BAC0B7F004D0BA2B010EBA65E9D701
:100C580028502910D8B412006251030DF3CFB4F014
:100C6800F4CFB5F0030EB425B86F000EB521B96FF7
:100C7800B851B96FB86BB751D00FBA6F000E8F6FFC
:100C88006851D8B41200010EB16FB851BA11B26FE1
:100C9800B951B36F250E2BEC0BF055D7E1CF04F00B
:100CA800E2CF05F0D9CF06F0DACF07F0F3CF08F09E
:100CB800F4CF09F0000E0001956F6E500E0B0D6E0B
:100CC80099D0320E376067D036500A0DD20EF32411
:100CD800D96E010EF420DA6E0F013151F00BDF6E80
:100CE80036500A0DD30EF324D96E010EF420DA6EB5
:100CF80032CF01F0050E026ED8900132022EFCD7D9
:100D080031510F0B080DF3500124DF6E36500A0DD8
:100D1800D20EF324D96E010EF420DA6E800EDE189E
:100D2800D8B40CD036500A0DD20EF324D96E010E69
:100D3800F420DA6E400EDE18D8A42DD035510F0BF2
:100D48000C6E360E0A6E0F0E0B6E000E0E6E17D05E
:100D58000E500A24D96E000E0B20DA6E36500A0D9A
:100D6800D40EF324016E010EF420026E0E500124FD
:100D7800E16E000E0220E26EDFCFE7FF0E2A0C5074
:100D88000E5CD8A0E5D7300E366403D0000E366E60
:100D980001D0362A372A0F01309F779241D062CF8F
:100DA80001F0050E026ED8900132022EFCD7615078
:100DB800080DF3500124036E0304946F609E77902E
:100DC800010E946F2DD077942BD0779C29D07796ED
:100DD80027D0779825D0779A71BC719C71BE719E87
:100DE80071AA1ED03F50D8A41BD0140E936F010EC9
:100DF8003F6E16D00D50020AD8B4EDD7060AD8B403
:100E0800E8D7020AD8B4E3D70E0AD8B4DCD7020A66
:100E1800D8B457D7060AD8B4C2D7020AD8B4D5D797
:100E280009C0F4FF08C0F3FF07C0DAFF06C0D9FF06
:100E380005C0E2FF04C0E1FF42921100000EB36F4B
:100E4800000EB26F010EB46F1E50B425D96EDA6A67
:100E5800DF501F6E1F50B227000EB323B42B060EAF
:100E6800B465F2D71E50D96EDA6A070ED926DF505C
:100E78001F6E1F50216E206A1E50D96EDA6A080E46
:100E8800D926DF50226E22502012000E2112205047
:100E9800B2272150B323B251B311D8A41200000EC7
:100EA8002D6E000E796F000E786F1E50D96EDA6ABB
:100EB800030ED926DF50B16F1E50D96EDA6A060EBE
:100EC800D926DF50B56F3CD0B5C077F0B5C02EF04D
:100ED8001200B5512E18D8A412002EC077F01200B7
:100EE800B5512E18D8A41200000E776F1200000E0C
:100EF800726F1200B5C076F0B505D8B41200020EB4
:100F0800B519D8B408D0050EB519D8B404D0060E52
:100F1800B519D8A403D0010E756F1200030EB519C8
:100F2800D8B404D0040EB519D8A41200010E796FF4
:100F38001200000E2D6E000E796F000E786F1200F1
:100F4800B1513A0AD8B4C5D7010AD8B4C9D7060AE4
:100F5800D8B4CDD7020AD8B4B7D77F0AD8B4CAD77D
:100F6800010AD8A41200E5D7000E0001C36F000ED5
:100F7800C16F000EC26F000EC36FC351B90FD96E97
:100F8800DA6A80CF1EF0010E1E16D8901E36D89051
:100F98001E36D8901E3680CF1FF0020E1F16D8902E
:100FA8001F34206E80CF21F0D8902132020E2116F6
:100FB8008038E8461F0B010B211020101E10DF6E31
:100FC800C351B90FD96EDA6A0F0EDF16C351B10FCC
:100FD800D96EDA6A8450030BDF6E00F000F000F07F
:100FE80000F000F000F000F000F000F000F000F079
:100FF80000F000F000F000F000F00001C32B070E35
:10100800C365BBD7000EC36FC3C01EF0010E1E26FA
:101018001E50B90FD96EDA6AC351B90FE16EE26A90
:10102800DE50E618D8B4C12BC3C01EF0010E1E2630
:101038001E50B10FD96EDA6AC351B10FE16EE26A80
:10104800DE50E618D8B4C22BC32B060EC365DCD716
:10105800050EC1650DD0B951FF0A030B626FB95176
:10106800FF0A1E6ED8901E32D8901E30030B616F97
:10107800050EC26504D0B151030B856F1200010E35
:10108800856F1200206EF29E000E376E000E366ECF
:10109800000E00018B6F000E216E000E226E215093
:1010A8000A0DD20EF3241E6E010EF4201F6E22507C
:1010B8001E24D96E000E1F20DA6E000EDF6E222A63
:1010C800090E2264ECD7212A310E2164E6D7000EDE
:1010D800226E2250AA0FD96EDA6A000EDF6E222A1B
:1010E800060E2264F6D793949386708A7098800EC1
:1010F8006F6E6E50E00B800AD8A4FBD72004D8A4EA
:1011080002D0890E01D0830E0E01436FF40E446F96
:10111800020E456F200E606E200E0F01306F200EFC
:101128000E01E16FE00EE06F200EE56FE00EE46F58
:10113800000EF96FFE0EF86F000EE96F800EE86F73
:10114800000EED6F400EEC6F000EF16F800EF06F29
:10115800000EF56F400EF46F000EFD6FF00EFC6F81
:10116800000E6F6E6ECF1EF0E00E1E16D8A4FAD7D2
:10117800000E0F01116F000E126F000E156F000E9A
:10118800166F000E776E230E766E7868F28E120058
:10119800B40EB66F5AD0250EB719D8B446D0B1518F
:1011A800D96EDA6AB7C0DFFFB12B4FD0B651D96E0E
:1011B800DA6ADECFB8F0DDCFB9F0020EB627B85143
:1011C800B911D8A41ED0770EB86F700EB96F19D0A8
:1011D800B8C0F6FFB9C0F7FFF86A0001B151D96E7F
:1011E800DA6A0F0EF76403D00800F55005D0F6CF81
:1011F800E1FFF7CFE2FFE750DF6E0001B84BB92BF4
:10120800B12BB8C0F6FFB9C0F7FFF86A0F0EF76444
:1012180003D00800F55005D0F6CFE1FFF7CFE2FF85
:10122800E7500009D8B411D0D3D7B2C0F6FFB3C085
:10123800F7FFB24BB32B0800F5CFB7F0B751000A50
:10124800D8B410D0730AD8B4B1D7B2C0F6FFB3C0BF
:10125800F7FF0001B24BB32B0800F5CFB7F0B75139
:10126800D8A499D7B151D96EDA6A000EDF6E120090
:101278009EEC09F07451D8B41200000E746F330458
:10128800D8A406D0010E406E010E8E6F010E846F39
:10129800020E3318D8A404D0010E8C6F100E3B6ECA
:1012A800030E3318D8A406D0020E406E010E8E6FBE
:1012B800010E846F040E3318D8A406D0030E406EB6
:1012C800010E8E6F010E846F050E3318D8A406D058
:1012D800040E406E010E8E6F010E846F060E3318D9
:1012E800D8A404D0010E8C6F200E3B6E070E331865
:1012F800D8A406D0030E406E010E8E6F010E846FC7
:10130800080E3318D8A406D0020E406E010E8E6F58
:10131800010E846F090E3318D8A406D0010E406E52
:10132800010E8E6F010E846F3250D8A4120082EC29
:1013380005F012003550FF0AB46FD890B431030B92
:10134800B96FB951D8B409D07151B919D8B409D005
:10135800010E326EB9C071F004D0000E326E000E6C
:10136800716FB9A102D0000E0BD0B9A302D0010E43
:1013780007D0B9A502D0020E03D0B9A702D0030E38
:10138800B86F3250D8B412006251030DF3CFB4F0E5
:10139800F4CFB5F0030EB425B66F000EB521B76FC4
:1013A800B651B76FB66BB851C80FB96F000E326E31
:1013B8006751D8B41200010EB16FB651B911B26FAE
:1013C800B751B36F250E2BEC0BF0080E836F000E90
:1013D800866F010E726F120060C082F0010E00016C
:1013E800B16F82C0B2F0B36B060E2BEC0BF0010E9E
:1013F8001F6EF40E1E6E7EEC0BF0000E0001816F66
:10140800000E8E6F000E8C6F000E3E6E000E8F6FFA
:101418006151D8B410D0010EB16F62C0B4F0030EA0
:10142800B417010EB425B26FB36B000EB323170EB9
:101438002BEC0BF009D0010EB16F000EB36F050E47
:10144800B26F170E2BEC0BF0030E1F6EE80E1E6E1C
:101458007EEC0BF08C928C941200520EF66E180EE5
:10146800F76E000EF86E0900F5CFD7F00900F5CF3A
:10147800D8F0500EF66E180EF76E000EF86E0900D2
:10148800F5CF40F00900F5CF41F001EED2F011EEB2
:10149800F4F0EE6AE550E150FCE1E250FAE101EEC9
:1014A80000F0D20EEE6AE806FDE100EE60F0510EA3
:1014B800EE6AE806FDE100EE25F01B0EEE6AE8068E
:1014C800FDE142904292000EF86E000176EF03F0C3
:1014D800000E206E14D01E502024D96EDA6A0A0E2F
:1014E8003024E16EE26A010EE222DFCFE7FF302A04
:1014F800C80E3018D8A402D0000E306E202A1F5013
:10150800205CD8A0E8D7F29E1F507A277B51D8A438
:1015180012D00A0E2F24D96EDA6A010EDA22DF50B1
:10152800AD6E2F2AC80E2F18D8A402D0000E2F6E29
:101538007A07010E7B6F9D88F28E1200000E0F0154
:101548005A6F000E5B6F000E916E000EA86E000EB3
:10155800906E000E5D6F000E5C6F000E806E000EC8
:10156800896E92688168000E8A6EFB0E936EBF0EBC
:10157800946E000E826E000E8B6E000E836E000E4F
:101588008C6EF00E956E8C828C848C86000E846E28
:10159800070E966E000E8D6E12007551D8B41200AB
:1015A800000E756F000E806FF29E010EB16F000E77
:1015B800B36F000EB26F150E2BEC0BF0010E1F6E01
:1015C800F40E1E6E7EEC0BF0000E1F6E190E1E6ED2
:1015D80066EC0BF0010E1F6EF40E1E6E7EEC0BF027
:1015E800F0EC09F0F28E030E1F6EE80E1E6E7EEC14
:1015F8000BF01200000E226E000E216E000E236EFC
:101608000BD01E502324D96EDA6ADF50206E20508A
:101618002126000E2222232A1F50235CD8A0F1D7AE
:1016280021500008216E2250D8A0E82A0008226E16
:101638001E502324D96EDA6A22C0DFFF1E502324ED
:10164800D96EDA6A010ED92621C0DFFF1200246E96
:101658007E0E0001966F9769060E986F24C099F068
:10166800B1C09AF0B3C09BF0B2C09CF0EF0E9F6F70
:10167800970E1E6E060E1F6EFEEC0AF0960E1E6E7C
:101688000A0E1F6E6CEC0AF00A0E2D6E1200000E88
:10169800226E2250AA0FD96EDA6A000EDF6E222A55
:1016A800060E2264F6D7B8EC07F0EDEC0BF0030E4B
:1016B800626502D0010E626F030E61651200010EB1
:1016C800616F1200949C948EA7961EC0AFFF1FC036
:1016D8007DFF000E7D6E000E7D6E200EAC6E900EAE
:1016E800AB6E900EAB6EA7989E989F989D989F9A08
:1016F8009D8A12000ED0000E216E000E206E215021
:1017080007E1A50E205CD8B003D0204A212AF7D7DC
:1017180004001E06D8A01F061E28EDE11F28D8B415
:101728001200E9D7342A040E346006D034A002D05F
:101738008C9012008C801200030E346405D00F0EBA
:10174800346002D08C8012000E0E34641200000E39
:10175800346E12001F6E080E206E000E216ED89097
:101768001F342134216ED8901F361E50215CD8A01A
:1017780002D01E50215E202EF2D72150120079513E
:10178800D8B41200782B030E786505D0000E786F58
:10179800000E796F1200960E1E6E0A0E1F6E6CEC0C
:1017A8000AF00A0E2D6E1200106E080E116E000E51
:1017B800126ED89010341234126ED89010360F5022
:1017C800125CD8A002D00F50125E112EF2D7125020
:1017D80012008505D8A402D0190E01D00F0E606F33
:1017E8003C0E636F010E646F010E656F010E666F2C
:1017F800010E676F000E686F12001E502002F3CFB3
:1018080022F0F4CF23F01E502102F35023261F505C
:101818002002F350232622C01EF023C01FF012001E
:101828009E909F909D80F60ECF6E3C0ECE6E310E30
:10183800CD6E1200F294F28AF194000ED66E0C0E60
:0C184800D76E840ED56E1200FFFFFFFF6C
:10651600009970FF706571CB7131729772FA725D76
:1065260073C37384709F7005716B71D17137729DDF
:106536007200736373C9738770A27008716E71D429
:10654600713A72A07203736673CC738A70A5700B6E
:10655600717171D7713D72A37206736973CF738DB2
:1065660070A8700E717471DA714072A67209736C3C
:1065760073D2739070AB7011717771DD714372A92C
:10658600720C736F73D5739370AE7014717A71E079
:10659600717E709C7002716871CE7134729A72FD50
:1065A600726073C67326741F7518768476F0765CEF
:1065B60077C8773478A0780C797879327A9E7A58C9
:1065C6007BC47B307C9C7C087D747DE07D4C7EB8F2
:1065D6007E247F907F44743D751B768776F3765FC5
:1065E60077CB773778A3780F797B79357AA17A5B81
:1065F6007BC77B337C9F7C0B7D777DE37D4F7EBBAA
:106606007E277F937F477440751E768A76F676627C
:1066160077CE773A78A67812797E79387AA47A5E38
:106626007BCA7B367CA27C0E7D7A7DE67D527EBE61
:106636007E2A7F967F4A74437521768D76F9766534
:1066460077D1773D78A978157981793B7AA77A61F0
:106656007BCD7B397CA57C117D7D7DE97D557EC119
:106666007E2D7F997F4D74467524769076FC7668EC
:1066760077D4774078AC78187984793E7AAA7A64A8
:106686007BD07B3C7CA87C147D807DEC7D587EC4D1
:106696007E307F9C7F5074497527769376FF766BA4
:1066A60077D7774378AF781B798779417AAD7A6760
:1066B6007BD37B3F7CAB7C177D837DEF7D5B7EC789
:1066C6007E337F9F7F53744C752A76967602776E5B
:1066D60077DA774678B2781E798A79447AB07A6A18
:1066E6007BD67B427CAE7C1A7D867DF27D5E7ECA41
:1066F6007E367FA27F4672AC720F737273D8739622
:1067060070B17017717D71E3714972757381700094
:1067160000000000000000000056744F752D7699A9
:106726007605777177DD774978B57821798D794760
:106736007AB37A6D7BD97B457CB17C1D7D897DF5ED
:106746007D617ECD7E397FA57F5974527530769CEA
:106756007608777477E0774C78B878247990794A18
:106766007AB67A707BDC7B487CB47C207D8C7DF8A5
:106776007D647ED07E3C7FA87F5C74557533769FA2
:10678600760B777777E3774F78BB78277993794DD0
:106796007AB97A737BDF7B4B7CB77C237D8F7DFB5D
:1067A6007D677ED37E3F7FAB7FB4701A718071E6C2
:1067B600714C72AF7212737873DB73B7701D71838D
:1067C60071E9714F72B27215737B73DE73BA702002
:1067D600718671EC715272B57218737E73E173BD76
:1067E6007023718971EF715572B8721B738173E4EE
:1067F60073C07026718C71F2715872BB721E7384ED
:1068060073E773C37029718F71F5715B72BE722164
:10681600738773EA73C6702C719271F8715E72C1D8
:106826007224738A73ED73C9702F719571FB716150
:1068360072C47227738D73F073CC7032719871FEC7
:10684600716472C7722A739073F373CF7035719B3C
:106856007101726772CA722D739373F673D27038B0
:10686600719E7104726A72CD7230739673F973D524
:10687600703B71A17107726D72D07233739973FC9C
:1068860073D8703E71A4710A727072D37236739C9B
:1068960073FF73DB704171A7710D727372D6723913
:1068A600739F730274DE704471AA7110727672D986
:1068B600723C73A2730574E1704771AD71137279FE
:1068C60072DC723F73A5730874E4704A71B0711676
:1068D600727C72DF724273A8730B74E7704D71B3EA
:1068E6007119727F72E2724573AB730E74EA70505F
:1068F60071B6711C728272E5724873AE731174EDD3
:10690600705371B9711F728572E8724B73B173144B
:10691600748170000000000000000000000000000C
:1069260000F0705671BC7122728872EB724E73B4AD
:10693600731774F3705971BF7125728B72EE7251B1
:1069460073B7731A74F6705C71C27128728E72F125
:10695600725473BA731D74F9705F71C5712B72919D
:1069660072F4725773BD732074FC706271C8712E15
:10697600729472F7725A73C073237471746A75369F
:1069860076A2767A77E6775278507A0A7B767B4ECD
:106996007C74746D753976A5767D77E9775578536D
:1069A6007A0D7B797B297D777470753C76A8768025
:1069B60077EC775878567A107B7C7B7975457683A9
:1069C600748C77887B607C8B75C37607786F7C9E2A
:1069D60077D27FCF767F78377BBF7DAD771978A06A
:1069E60075B077AC7B5C7DB377A6752278BC74B541
:1069F60075C874C175CB74C475CE74C775D174CAA5
:106A060075D474CD75D774D075DA74D375DD74D634
:106A160075E074D975E374DC75E674DF75E974E2C4
:106A260075EC74E575EF74E875F274EB75F574EE54
:106A360075F874F175FB74F475FE74F7750175FAE3
:106A4600750475FD75077500760A7503760D75066E
:106A5600761075097613750C76297422752C7425B3
:106A6600752F74287532742B75387431753B7434F0
:106A7600753E74377535742E75C574BE7541743A96
:106A8600755F74587562745B7565745E756B746456
:106A960075687461756E746775BF74B875C274BBBA
:106AA6007516750F761C7515761975127681700038
:106AB60000000000000000000000000000000000D0
:106AC60000000000000000000000000000000000C0
:106AD60000000000000000000000000000000000B0
:106AE60000000000000000000000000000000000A0
:106AF6000000000000000000000000000000000090
:106B0600000000000000000000000000000000007F
:106B1600000000000000000000000000000000006F
:106B26000000000000000000007174747477747A2D
:106B3600747D7480748374867489748C748F749273
:106B460074957498749B749E74A174A474A774AAA3
:106B560074AD74B074B374B674B974BC746A756D7C
:106B66007570757375767579757C757F75827585A3
:106B76007588758B758E759175947597759A759DD3
:106B860075A075A375A675A975AC75AF75B275B503
:106B960075367639763C763F764276457648764B3C
:106BA600764E765176547657765A765D766076636B
:106BB60076667669766C766F767276757678767B9B
:106BC600767E768176A276A576A876AB76AE76B117
:106BD60076B476B776BA76BD76C076C376C676C90B
:106BE60076CC76CF76D276D576D876DB76DE76E13B
:106BF60076E476E776EA76ED760E771177147717F0
:106C0600771A771D7720772377267729772C772FA2
:106C1600773277357738773B773E774177447747D2
:106C2600774A774D7750775377567759777A777DC6
:106C36007780778377867789778C778F7792779542
:106C46007798779B779E77A177A477A777AA77AD72
:106C560077B077B377B677B977BC77BF77C277C5A2
:106C660077E677E977EC77EF77F277F577F877FBE2
:106C760077FE770178047807780A780D781078130C
:106C860078167819781C781F782278257828782B3A
:106C9600782E7831785278557858785B785E7861B6
:106CA60078647867786A786D7870787378767879AA
:106CB600787C787F788278857888788B788E7891DA
:106CC60078947897789A789D78BE78C178C478C792
:106CD60078CA78CD78D078D378D678D978DC78DF4A
:106CE60078E278E578E878EB78EE78F178F478F77A
:106CF60078FA78FD7800790379067909792A792D69
:106D06007930793379367939793C793F79427945E1
:106D16007948794B794E795179547957795A795D11
:106D26007960796379667969796C796F7972797541
:106D360079967999799C799F79A279A579A879AB81
:106D460079AE79B179B479B779BA79BD79C079C3B1
:106D560079C679C979CC79CF79D279D579D879DBE1
:106D660079DE79E179E479E779EA79ED79F079F311
:106D760079F679F979FC79FF79027A057A087A0B3E
:106D86007A0E7A117A147A177A1A7A1D7A207A2369
:106D96007A267A297A2C7A2F7A507A537A567A5921
:106DA6007A5C7A5F7A627A657A687A6B7A6E7A71D9
:106DB6007A747A777A7A7A7D7A807A837A867A8909
:106DC6007A8C7A8F7A927A957A987A9B7ABC7ABFFD
:106DD6007AC27AC57AC87ACB7ACE7AD17AD47AD779
:106DE6007ADA7ADD7AE07AE37AE67AE97AEC7AEFA9
:106DF6007AF27AF57AF87AFB7AFE7A017B047B07D7
:106E06007B0A7B0D7B107B137B167B197B1C7B1F00
:106E16007B227B257B287B2B7B2E7B317B347B3730
:106E26007B3A7B3D7B407B437B467B497B4C7B4F60
:106E36007B527B557B767B797B7C7B7F7B827B85DC
:106E46007B887B8B7B8E7B917B947B977B9A7B9DD0
:106E56007BA07BA37BA67BA97BAC7BAF7BB27BB500
:106E66007BB87BBB7BBE7BC17BE27BE57BE87BEBB8
:106E76007BEE7BF17BF47BF77BFA7BFD7B007C036F
:106E86007C067C097C0C7C0F7C127C157C187C1B98
:106E96007C1E7C217C247C277C2A7C2D7C4E7C518C
:106EA6007C547C577C5A7C5D7C607C637C667C6908
:106EB6007C6C7C6F7C727C757C787C7B7C7E7C8138
:106EC6007C847C877C8A7C8D7C907C937C967C9968
:106ED6007CBA7CBD7CC07CC37CC67CC97CCC7CCFA8
:106EE6007CD27CD57CD87CDB7CDE7CE17CE47CE7D8
:106EF6007CEA7CED7CF07CF37CF67CF97CFC7CFF08
:106F06007C027D057D267D297D2C7D2F7D327D357C
:106F16007D387D3B7D3E7D417D447D477D4A7D4D6F
:106F26007D507D537D567D597D5C7D5F7D627D659F
:106F36007D687D6B7D6E7D717D927D957D987D9B57
:106F46007D9E7DA17DA47DA77DAA7DAD7DB07DB30F
:106F56007DB67DB97DBC7DBF7DC27DC57DC87DCB3F
:106F66007DCE7DD17DD47DD77DDA7DDD7DFE7D0133
:106F76007E047E077E0A7E0D7E107E137E167E19A7
:106F86007E1C7E1F7E227E257E287E2B7E2E7E31D7
:106F96007E347E377E3A7E3D7E407E437E467E4907
:106FA6007E6A7E6D7E707E737E767E797E7C7E7F47
:106FB6007E827E857E887E8B7E8E7E917E947E9777
:106FC6007E9A7E9D7EA07EA37EA67EA97EAC7EAFA7
:106FD6007EB27EB57ED67ED97EDC7EDF7EE27EE523
:106FE6007EE87EEB7EEE7EF17EF47EF77EFA7EFD17
:106FF6007E007F037F067F097F0C7F0F7F127F1540
:107006007F187F1B7F1E7F217F427F457F487F4BF6
:107016007F4E7F517F547F577F5A7F5D7F607F63AE
:107026007F667F697F6C7F6F7F727F757F787F7BDE
:107036007F7E7F817F847F877F8A7F8D7FAE7FB1D2
:107046007FB47FB77FBA7FBD7FC07FC37FC67FC94E
:107056007FCC7FCF7FD27FD57FD87FDB7FDE7FE17E
:107066007FE47FE77FEA7FED7FF07FF37FF67FF9AE
:107076007F286E756C6C290020300030300031306E
:107086000032300033300034300035300036300006
:107096003730002031002D310031310032310033DC
:1070A600310034310035310036310037310041319D
:1070B6000042310043310044310045310046310081
:1070C6004731004831004931004A31004B31004C0C
:1070D60031004D31004E31005031005131005231F6
:1070E60000533100543100553100563100573100FC
:1070F6005831005931005A31002032002D3200310A
:107106003200323200333200343200353200363249
:10711600003732004132004232004332004432002E
:107126004532004632004732004832004932004AB2
:1071360032004B32004C32004D32004E320050329B
:1071460000513200523200533200543200553200A0
:107156005632005732005832005932005A32002057
:1071660033002D33003133003233003333003433F0
:1071760000353300363300373300413300423300E5
:107186004333004433004533004633004733004859
:1071960033004933004A33004B33004C33004D3340
:1071A600004E330050330051330052330053330046
:1071B60054330055330056330057330058330059C3
:1071C60033005A33002034002D3400313400323479
:1071D600003334003434003534003634003734009C
:1071E6004134004234004334004434004534004600
:1071F60034004734004834004934004A34004B34E4
:10720600004C34004D34004E3400503400513400EC
:107216005234005334005434005534005634005769
:1072260034005834005934005A34002035002D35C6
:107236000031350032350033350034350035350040
:1072460036350037350041350042350043350044B8
:107256003500453500463500473500483500493587
:10726600004A35004B35004C35004D35004E350093
:107276005035005135005235005335005435005510
:1072860035005635005735005835005935005A3502
:10729600002036002D3600313600323600333600F7
:1072A6003436003536003636004136004236004365
:1072B6003600443600453600463600473600483626
:1072C600004936004A36004B36004C36004D360033
:1072D6004E360050360051360052360053360054B2
:1072E60036005536005636005736005836005936A1
:1072F600005A36002037002D37003137003237006C
:10730600333700343700353700363700413700420F
:1073160037004337004437004537004637004737C4
:10732600004837004937004A37004B37004C3700D2
:107336004D37004E37005037005137005237005353
:10734600370054370055370056370057370058373F
:10735600005937005A37002038002D3800313800E0
:1073660032380033380034380035380036380038C3
:107376003800413800423800433800443800453868
:10738600004638004738004838004938004A380077
:107396004B38004C38004D38004E380050380051FC
:1073A60038005238005338005438005538005638E3
:1073B600005738005838005938005A38002039002C
:1073C6002D3900313900323900333900343900356E
:1073D6003900363900413900423900433900443911
:1073E6000045390046390047390048390049390017
:1073F6004A39004B39004C39004D39004E3900509E
:107406003900513900523900533900543900553981
:10741600005639005739005839005939005A390091
:10742600204100214100234100254100264100273B
:1074360041002841002941002A41002C41003141E8
:1074460000324100334100344100354100364100ED
:107456003741003841003941003A41003B41003C88
:1074660041003D41003E4100404100414100424152
:107476000043410044410045410046410047410068
:107486004841004941004A41004B41004C41004DF2
:1074960041004E41004F41005041005141005241D0
:1074A60000534100544100554100564100574100E8
:1074B6005841005941005A41005B41005D4100605E
:1074C6004100614100624100634100644100654141
:1074D600006641006741006841006941006A410059
:1074E6006B41006C41006D41006E41006F410070C0
:1074F60041007141007241007341007441007541C1
:10750600007641007741007841007941007A4100D8
:107516007B41007C41007D41002042002142002346
:107526004200254200264200274200284200294206
:10753600002A42002C42003142003242003342000F
:1075460034420035420036420037420038420039A4
:1075560042003A42003B42003C42003D42003E426D
:107566000040420041420042420043420044420081
:107576004542004642004742004842004942004A0E
:1075860042004B42004C42004D42004E42004F42E8
:107596000050420051420052420053420054420001
:1075A6005542005642005742005842005942005A7E
:1075B60042005B42005D420060420061420062425E
:1075C6000063420064420065420066420067420072
:1075D6006842006942006A42006B42006C42006DDC
:1075E60042006E42006F42007042007142007242D9
:1075F60000734200744200754200764200774200F2
:107606007842007942007A42007B42007C42007D4B
:1076160042002043003143003243003343003443E9
:1076260000354300364300374300384300394300F2
:107636004143004243004343004443004543004660
:1076460043004743004843004943004A43004B4335
:10765600004C43004D43004E43004F43005043004F
:1076660051430052430053430054430055430056D0
:1076760043005743005843005943005A43002044EF
:1076860000314400324400334400344400354400A1
:10769600364400374400384400394400414400422F
:1076A60044004344004444004544004644004744E3
:1076B600004844004944004A44004B44004C4400FE
:1076C6004D44004E44004F44005044005144005283
:1076D6004400534400544400554400564400574463
:1076E600005844005944005A4400204500314500E2
:1076F60032450033450034450035450036450037F0
:10770600450038450039450041450042450043459E
:1077160000444500454500464500474500484500AC
:107726004945004A45004B45004C45004D45004E35
:1077360045004F4500504500514500524500534510
:10774600005445005545005645005745005845002C
:107756005945005A4500204600314600324600335E
:107766004600344600354600364600374600384661
:107776000039460041460042460043460044460062
:107786004546004646004746004846004946004AE8
:1077960046004B46004C46004D46004E46004F46BE
:1077A60000504600514600524600534600544600DB
:1077B6005546005646005746005846005946005A58
:1077C6004600204700314700324700334700344720
:1077D600003547003647003747003847003947002D
:1077E600414700424700434700444700454700469B
:1077F60047004747004847004947004A47004B476C
:10780600004C47004D47004E47004F470050470089
:10781600514700524700534700544700554700560A
:1078260047005747005847005947005A4700204825
:1078360000314800324800334800344800354800DB
:107846003648003748003848003948004148004269
:107856004800434800444800454800464800474819
:10786600004848004948004A48004B48004C480038
:107876004D48004E48004F480050480051480052BD
:107886004800534800544800554800564800574899
:10789600005848005948005A48002049003149001C
:1078A600324900334900344900354900364900372A
:1078B60049003849003949004149004249004349D5
:1078C60000444900454900464900474900484900E7
:1078D6004949004A49004B49004C49004D49004E70
:1078E60049004F4900504900514900524900534947
:1078F6000054490055490056490057490058490067
:107906005949005A4900204A00314A00324A003398
:107916004A00344A00354A00364A00374A00384A97
:1079260000394A00414A00424A00434A00444A009C
:10793600454A00464A00474A00484A00494A004A22
:107946004A004B4A004C4A004D4A004E4A004F4AF4
:1079560000504A00514A00524A00534A00544A0015
:10796600554A00564A00574A00584A00594A005A92
:107976004A00204B00314B00324B00334B00344B56
:1079860000354B00364B00374B00384B00394B0067
:10799600414B00424B00434B00444B00454B0046D5
:1079A6004B00474B00484B00494B004A4B004B4BA2
:1079B600004C4B004D4B004E4B004F4B00504B00C4
:1079C600514B00524B00534B00544B00554B005645
:1079D6004B00574B00584B00594B005A4B00414C3B
:1079E60000424C00434C00444C00454C00464C00C1
:1079F600474C00484C00494C004A4C004B4C004C4C
:107A06004C004D4C004E4C004F4C00504C00514C1D
:107A160000524C00534C00544C00554C00564C0040
:107A2600574C00584C00594C005A4C00204D003120
:107A36004D00324D00334D00344D00354D00364D6E
:107A460000374D00384D00394D00414D00424D0084
:107A5600434D00444D00454D00464D00474D0048FE
:107A66004D00494D004A4D004B4D004C4D004D4DCB
:107A7600004E4D004F4D00504D00514D00524D00EF
:107A8600534D00544D00554D00564D00574D00586E
:107A96004D00594D005A4D00204E00314E00324ED9
:107AA60000334E00344E00354E00364E00374E0041
:107AB600384E00394E00414E00424E00434E0044BF
:107AC6004E00454E00464E00474E00484E00494E79
:107AD600004A4E004B4E004C4E004D4E004E4E009E
:107AE6004F4E00504E00514E00524E00534E005421
:107AF6004E00554E00564E00574E00584E00594EF9
:107B0600005A4E00414F00424F00434F00444F0081
:107B1600454F00464F00474F00484F00494F004A27
:107B26004F004B4F004C4F004D4F004E4F004F4FF4
:107B360000504F00514F00524F00534F00544F001A
:107B4600554F00564F00574F00584F00594F005A97
:107B56004F00205000315000325000335000345056
:107B6600003550003650003750003850003950006C
:107B760041500042500043500044500045500046DA
:107B860050004750004850004950004A50004B50A2
:107B9600004C50004D50004E50004F5000505000C9
:107BA600515000525000535000545000555000564A
:107BB60050005750005850005950005A500020515C
:107BC600003151003251003351003451003551001B
:107BD60036510037510038510039510041510042A9
:107BE6005100435100445100455100465100475150
:107BF600004851004951004A51004B51004C510078
:107C06004D51004E51004F510050510051510052FC
:107C160051005351005451005551005651005751CF
:107C2600005851005951005A51002052003152005B
:107C36003252003352003452003552003652003769
:107C4600520038520039520041520042520043520B
:107C56000044520045520046520047520048520026
:107C66004952004A52004B52004C52004D52004EAF
:107C760052004F520050520051520052520053527D
:107C860000545200555200565200575200585200A6
:107C96005952005A520020530031530032530033D8
:107CA60053003453003553003653003753003853CE
:107CB60000395300415300425300435300445300DC
:107CC6004553004653004753004853004953004A62
:107CD60053004B53004C53004D53004E53004F532B
:107CE6000050530051530052530053530054530055
:107CF6005553005653005753005853005953005AD2
:107D0600530020540031540032540033540034548C
:107D160000355400365400375400385400395400A6
:107D26004154004254004354004454004554004614
:107D360054004754004854004954004A54004B54D8
:107D4600004C54004D54004E54004F540050540003
:107D56005154005254005354005454005554005684
:107D660054005754005854005954005A5400205592
:107D76000031550032550033550034550035550055
:107D860036550037550038550039550041550042E3
:107D96005500435500445500455500465500475586
:107DA600004855004955004A55004B55004C5500B2
:107DB6004D55004E55004F55005055005155005237
:107DC6005500535500545500555500565500575506
:107DD600005855005955005A550020560031560096
:107DE60032560033560034560035560036560037A4
:107DF6005600385600395600415600425600435642
:107E06000044560045560046560047560048560060
:107E16004956004A56004B56004C56004D56004EE9
:107E260056004F56005056005156005256005356B3
:107E360000545600555600565600575600585600E0
:107E46005956005A56002057003157003257003312
:107E56005700345700355700365700375700385704
:107E66000039570041570042570043570044570016
:107E76004557004657004757004857004957004A9C
:107E860057004B57004C57004D57004E57004F5761
:107E9600005057005157005257005357005457008F
:107EA6005557005657005757005857005957005A0C
:107EB60057002058003158003258003358003458C3
:107EC60000355800365800375800385800395800E1
:107ED600415800425800435800445800455800464F
:107EE60058004758004858004958004A58004B580F
:107EF600004C58004D58004E58004F58005058003E
:107F060051580052580053580054580055580056BE
:107F160058005758005858005958005A58002059C8
:107F2600003159003259003359003459003559008F
:107F3600365900375900385900395900415900421D
:107F460059004359004459004559004659004759BC
:107F5600004859004959004A59004B59004C5900EC
:107F66004D59004E59004F59005059005159005271
:107F7600590053590054590055590056590057593C
:107F8600005859005959005A5900205A00315A00D0
:107F9600325A00335A00345A00355A00365A0037DE
:107FA6005A00385A00395A00415A00425A00435A78
:107FB60000445A00455A00465A00475A00485A009B
:107FC600495A004A5A004B5A004C5A004D5A004E24
:107FD6005A004F5A00505A00515A00525A00535AEA
:107FE60000545A00555A00565A00575A00585A001B
:0A7FF600595A005A5A002573000082
:020000040020DA
:08000000FFFFFFFFFFFFFFFF00
:020000040030CA
:0E00000015026A2BFF8991FF00800FE00F4070
:00000001FF
