:0400000079EF01F0A3
:060008004282F8EF07F050
:100018004280D8CF15F0E8CF16F0E0CF17F0E1CF47
:1000280018F0E2CF19F0D9CF1AF0DACF1BF09EBA48
:100038009DAA61D0ABA00CD0AECF1DF0AECF1DF005
:10004800000E2F6EAB98AB9E9D9A020E286E52D072
:10005800AECF1DF0000E2F24D96EDA6A010EDA2217
:100068001DC0DFFF2F2A00F000F000F000F000F0C4
:1000780000F09EAA0BD0AECF1DF0000E2F24D96E33
:10008800DA6A010EDA221DC0DFFF2F2A7E0E010177
:100098000019D8B402D0000E2F6E020E2F18D8A463
:1000A80009D07E0E0019D8B405D00129D8B402D0E1
:1000B800000E2F6E090E2F641DD0EF0E0919D8A45B
:1000C80017D0010E0001846F000E1D6E090E1D640D
:1000D80001D00ED0000E1D24D96EDA6A010EDA2284
:1000E8001D509F0FE16EE26ADFCFE7FF1D2AEED7B2
:1000F800000E2F6E9E9A9EB89DA819D09E9800015A
:100108007C51D8B411D00A0E2D24D96EDA6A010EAA
:10011800DA22DF50AD6E2D2AC80E2D18D8A402D0D1
:10012800000E2D6E7C0703D0000E7D6F9D98F2B4F3
:10013800F2AA59D0F29400017E89000ED66E0C0EF8
:10014800D76E2A50D8A402D0010E01D0000E2A6E14
:100158007F51D8B40BD08CB003D0136A132A01D0C6
:10016800136A8C501318FE0B13188C6E0001815102
:10017800D8A481078B51D8A48B072A50D8B433D080
:100188007E8B942B752B090E75650BD0010E766F3F
:10019800000E756F312A080E316402D0010E316EDF
:1001A8007E8D69516A11D8B403D06907D8A06A074F
:1001B80038A013D03350D8B410D0352A130E356474
:1001C80012D0342A0B0E346003D0000E776F0BD098
:1001D800010E7F6F0A0E346E06D0000E356E000ECB
:1001E800346E000E7F6F9EB09DA06FD0292A9E901E
:1001F800F60ECF6E3C0ECE6E00017E810A0E0F6E9B
:10020800295016EC10F00009D8A402D000017E8510
:10021800140E0F6E295016EC10F00009D8A41CD04B
:1002280000017E879251D8A492072B50D8B406D0EB
:100238002B062B50D8A402D0010E7B6F2850D8B4BF
:100248000BD028062850D8A407D0AB88AB8EAECFE9
:100258001DF0AECF1DF09D8A00016B516C11D8B412
:1002680003D06B07D8A06C0726C027F025C026F05E
:1002780082500F0B256E000E1D6E030E1D6401D0FB
:1002880024D01DC013F0010E146E132A02D0D8908A
:100298001436132EFCD714501C6E27501C14136EE2
:1002A80026501C141318D8A40ED026501C14136EF4
:1002B80025501C141318D8A406D01C50FF0A381651
:1002C80027501C1438121D2AD8D71BC0DAFF1AC0B1
:1002D800D9FF19C0E2FF18C0E1FF17C0E0FF16C040
:1002E800E8FF15C0D8FF42901000C5EF0DF0000ED2
:1002F800D66F000EDA6F000ED76F000ED86FCC5194
:10030800D96EDA6ADF50D96F400ED919D8A4CBD08C
:10031800CC51D96EDA6A020ED9268E51DE18D8A4CD
:10032800C6D1CC51D96EDA6A040ED926DF50D76F00
:10033800CC51D96EDA6A050ED926DF50D86FD7515D
:10034800D8A402D0200ED76FD851D8A402D0200E3E
:10035800D86F000EDD6F000EDC6F000EDB6FD10E64
:10036800C26FFB0EC36F7F0EC46FDBC0CDF0DCC065
:10037800CEF0D890CD37CE37DDC01EF01F6A020E02
:10038800216E080E206E3FEC10F0FD0ECF6F640E4C
:10039800D06F1E50CF271F50D023CD51CF27CE511D
:1003A800D023CFC0F6FFD0C0F7FF0900F5CFC5F0C6
:1003B8000A00F5CFC6F060EC0FF0D151D719D8A4D8
:1003C8000BD0D851D219D8A407D0010ED66FDD2989
:1003D8003E6EDB29F36F10D0300ED119D8A404D0AB
:1003E800300ED219D8B408D0DB4BDC2B040EDB5D01
:1003F800010EDC59D8A0B3D7D651D8A404D0DD2B30
:10040800020EDD65A8D7D651D8A451D1000EDD6FF4
:10041800000EDC6F000EDB6FD10EC26FFB0EC36FD8
:100428007F0EC46FDBC0CDF0DCC0CEF0D890CD37E6
:10043800CE37DD51340D150ECF6F6B0ED06FF350E4
:10044800CF27F450D023CD51CF27CE51D023CFC0C2
:10045800F6FFD0C0F7FF0900F5CFC5F00A00F5CFC9
:10046800C6F060EC0FF0D151D719D8A40CD0D851F0
:10047800D219D8A408D0010ED66F030E3E6EDD51F6
:10048800DD0FF36F08D0DB4BDC2BDC5104E11A0ED7
:10049800DB5DD8A0C1D7D651D8A409D1DD2B190E60
:1004A800DD65B6D704D1420ED919D8A428D0CC51CD
:1004B800D96EDA6A020ED9268E51DE18D8A4F7D082
:1004C800CC51D96EDA6A050ED926DFB002D0000EFB
:1004D80007D0CC51D96EDA6A010ED926DF50330B1A
:1004E800DA6FDAC0CDF0030ECD17020ECD6502D05B
:1004F800000EDA6FDAC08DF0010E8C6FD8D0440E82
:10050800D919D8A40AD08B51D8A407D0F3C041F088
:10051800010E8A6F0A0E8B6FCAD00E0ED919D8A495
:10052800C6D0CC51D96EDA6A010ED926DF50DA6FFF
:1005380080D0CC51D96EDA6A050ED926DF50D8B4EE
:1005480002D0718995D0719993D0CC51D96EDA6A5D
:10055800050ED926DF50D8B402D0718789D071979B
:1005680087D0CC51D96EDA6A050ED926DF50876F4D
:100578001AD0CC51D96EDA6A050ED926DF50866FAB
:1005880012D0CC51D96EDA6A050ED926DF50856FA4
:100598000AD0DA51880AD8B4F4D7070AD8B4E9D708
:1005A8001F0AD8B4DED78751861185110009D8B43F
:1005B80002D071855DD071955BD0CC51D96EDA6A65
:1005C800050ED926DF50D8B402D0718D51D0719D57
:1005D8004FD0CC51D96EDA6A050ED926DF50D8B47F
:1005E80002D0718B45D0719B43D0CC51D96EDA6A59
:1005F800050ED926DF50D8B402D0718F39D0719F3B
:1006080037D0CC51D96EDA6A050ED926DF50D8B466
:1006180002D072812DD072912BD0CC51D96EDA6A6A
:10062800050ED926DF50D8B402D0728521D0729534
:100638001FD0DA51050AD8B4F0D7030AD8B4D5D7F1
:10064800160AD8B476D7960AD8B4DBD7010AD8B434
:100658007CD70F0AD8B49DD7020AD8B4AED7050AFA
:10066800D8B497D71F0AD8B494D7030AD8B4B1D747
:1006780071C06FF072C070F06F517011D8B40DD0A6
:100688006D516F1904E16E517019D8B410D06FC054
:100698006DF070C06EF0010E09D0000E706F000E84
:1006A8006F6F6FC06DF070C06EF0000E3D6E8A51B6
:1006B800D8B404D0000E8A6F010E3C6E89518D1992
:1006C800D8B412008DC0CDF0330ECD17D8B41200B7
:1006D8008C51D8B412008DC089F0000E8C6F010EB9
:1006E8003B6E1200030E1F6EE80E1E6E92EC0FF0AA
:1006F80036EC0EF0010ED16E000EF26ED08E0400B4
:100708005CEC10F052EC10F0000E1F6E190E1E6E0D
:100718007AEC0FF045EC0FF0000E916F030E6C6F42
:10072800E80E6B6F010E8E6FF28EF28C01D0040012
:1007380000016B516C11D8A4FAD7030E1F6EE80E96
:100748001E6E92EC0FF084EC0DF0010E336E000E6D
:100758000001EB6F000EC2EC0AF0050E0001916F6C
:10076800040063C069F000016A6B01EC10F0000E30
:100778000001CC6F040ECB6F39EC0DF0CBC0E9F063
:10078800CCC0EAF0E9C0B3F0EAC0B4F029EC0FF04D
:10079800B3C0B6F0B4C0B7F0B5C0B8F00F0EB96FBB
:1007A800F00EBA6F3B0EBB6F4AEC0BF0B6C0ECF024
:1007B800B7C0EDF0B8C0EEF0ECC01EF0EDC01FF011
:1007C800EEC020F0C4EC0BF01FBE05D01F5010E1A6
:1007D8001E04D8B00DD0ECC01EF0EDC01FF0EEC066
:1007E80020F0C4EC0BF01E1E1F1E1E4A1F2A08D044
:1007F800ECC01EF0EDC01FF0EEC020F0C4EC0BF012
:100808001EC0EFF01FC0F0F0F0BF06D0F05108E1B5
:10081800050EEF5DD8B004D0000EF06F050EEF6F37
:10082800EFC0E7F0F0C0E8F0010EB06FEFC0B1F034
:10083800F0C0B2F0060E09EC0FF00400000E000143
:10084800CC6F040ECB6F39EC0DF0CBC0E9F0CCC007
:10085800EAF0E9C0B3F0EAC0B4F029EC0FF0B3C095
:10086800B6F0B4C0B7F0B5C0B8F00F0EB96FF00E5F
:10087800BA6F3B0EBB6F4AEC0BF0B6C0ECF0B7C0DA
:10088800EDF0B8C0EEF0ECC01EF0EDC01FF0EEC009
:1008980020F0C4EC0BF01FBE05D01F5010E11E0461
:1008A800D8B00DD0ECC01EF0EDC01FF0EEC020F0A7
:1008B800C4EC0BF01E1E1F1E1E4A1F2A08D0ECC0D7
:1008C8001EF0EDC01FF0EEC020F0C4EC0BF01EC00F
:1008D800EFF01FC0F0F0EFB126D0E751EF1904E1B7
:1008E800E851F019D8B41FD0F0BF06D0F05108E194
:1008F800050EEF5DD8B004D0000EF06F050EEF6F57
:10090800010EB06FEFC0B1F0F0C0B2F0060E09EC06
:100918000FF0EFC0E7F0F0C0E8F0010E1F6EF40E24
:100928001E6E92EC0FF000017EA707D07F51D8B45D
:10093800AAEC0FF0E7EC0CF07E977EA906D0D7EC76
:100948000FF065EC0EF000017E998451D8B406D002
:100958009F0E1E6E9EEC09F0000E846F3A50D8A4CC
:10096800F0EC06F0030E00016119D8A403D02EECB8
:100978000CF088D0050E9119D8A484D08151D8B430
:10098800CEEC08F0020E6119D8A447D069516A115B
:10099800D8A403D06351D8A41AD08051D8A417D0B2
:1009A800010EB06F62C0E6F0030EE617010EE625F1
:1009B800B16FB26B000EB223170E09EC0FF0010EE7
:1009C8001F6EF40E1E6E92EC0FF0010E1AD06951D4
:1009D8006A11D8A418D06351D8B415D08051D8B4AE
:1009E80012D0010EB06F000EB26F050EB16F170E68
:1009F80009EC0FF0010E1F6EF40E1E6E92EC0FF054
:100A0800000E0001806F8DC0E6F0330EE617D8B4F3
:100A180039D063C069F06A6B35D06105D8A41AD0A3
:100A28008051D8A42FD0010EB06F62C0E6F0030E3B
:100A3800E617010EE625B16FB26B000EB223170E52
:100A480009EC0FF0010E1F6EF40E1E6E92EC0FF003
:100A5800010E16D06151D8A415D08051D8B412D047
:100A6800010EB06F000EB26F050EB16F170E09ECD4
:100A78000FF0010E1F6EF40E1E6E92EC0FF0000EBA
:100A88000001806F4050D8B403D09251D8B403D03D
:100A9800140E946507D0000E406E000E946FEB5153
:100AA800C2EC0AF000018351D8A4C7D68C928C946A
:100AB800C4D680D1250EC119D8B42FD0B551D96E5E
:100AC800DA6A020ED926DE50DE10D8B412D0B5513B
:100AD800D96EDA6A020ED92601D86CD10500FA6EF1
:100AE800DE50FD6EDE50FE6EF850FF6EFA50C151BA
:100AF8001200B551D96EDA6ADECFB9F0DDCFBAF09F
:100B0800B9C0D9FFBAC0DAFFC1C0DFFFB551D96E8D
:100B1800DA6ADE2A000EDD224DD1000EBB6F7DD0D1
:100B2800B851D96EDA6A020EDF26DF5CD96EDA6A4E
:100B3800DECFBFF0DECFC0F0BF51C011D8A459D06E
:100B4800760EBF6F700EC06F54D00001B551D96ECC
:100B5800DA6A020ED926DE50DE10D8B425D0B55197
:100B6800D96EDA6A020ED92601D81AD00500FA6EB3
:100B7800DE50FD6EDE50FE6EF850FF6EFA50BFC0BC
:100B8800F6FFC0C0F7FFF86A0E0EF76403D008003E
:100B9800F55005D0F6CFE1FFF7CFE2FFE75012009E
:100BA8000001BF4BC02B25D0BFC0F6FFC0C0F7FF68
:100BB800F86AB551D96EDA6ADECFB9F0DDCFBAF08E
:100BC800B9C0D9FFBAC0DAFF0E0EF76403D0080027
:100BD800F55005D0F6CFE1FFF7CFE2FFE750DF6E23
:100BE8000001BF4BC02BB551D96EDA6ADE2A000E60
:100BF800DD22BFC0F6FFC0C0F7FFF86A0E0EF7642B
:100C080003D00800F55005D0F6CFE1FFF7CFE2FF9B
:100C1800E7500009D8B4CED098D7B6C0F6FFB7C011
:100C2800F7FFB64BB72B0800F5CFC1F0C151000A4A
:100C3800D8B4CDD0640AD8B407D00D0AD8B404D03B
:100C48001A0AD8B46DD7B6D0B851D96EDA6A020E7E
:100C5800DF26DF5CD96EDA6ADECFBDF0DECFBEF00C
:100C6800BEAF06D0030EBB13BD6DBE1FD8B0BE2BE2
:100C7800010EC16FC151020D5D0EF324F66E700EA8
:100C8800F420F76E0900F550BD5D0900F550BE5916
:100C9800D8A005D0C12B050EC119D8A4EBD7BBC06D
:100CA800B9F0030EB917D8B42ED0B551D96EDA6A97
:100CB800020ED926DE50DE10D8B412D0B551D96E46
:100CC800DA6A020ED92601D81ED00500FA6EDE5067
:100CD800FD6EDE50FE6EF850FF6EFA502D0E1200BB
:100CE800B551D96EDA6ADECFB9F0DDCFBAF0B9C046
:100CF800D9FFBAC0DAFF2D0EDF6EB551D96EDA6AA8
:100D0800DE2A000EDD22C1C0BCF04FD0BC51020D5E
:100D18005D0EF324F66E700EF420F76E0900F5CF21
:100D280020F00A00F5CF21F0BDC01EF0BEC01FF0B4
:100D3800BFEC0EF01EC0B0F01FC0B1F0000EB36FD4
:100D48000A0EB26FE8EC0EF0B051300FC16FB5511A
:100D5800D96EDA6A020ED926DE50DE10D8B412D067
:100D6800B551D96EDA6A020ED92601D81ED005000F
:100D7800FA6EDE50FD6EDE50FE6EF850FF6EFA50D1
:100D8800C1511200B551D96EDA6ADECFB9F0DDCFA4
:100D9800BAF0B9C0D9FFBAC0DAFFC1C0DFFFB55198
:100DA800D96EDA6ADE2A000EDD220001BC07BC29F2
:100DB800D8A4ACD7B6C0F6FFB7C0F7FF0001B64B52
:100DC800B72B0800F5CFC1F0C151D8A473D6000ED7
:100DD800B66F000EB56F1200C8D088510A0DD40E38
:100DE800F324D96E010EF420DA6EDF50DE6FDE5187
:100DF800E26FE36BE251E311D8B4CAD0050E911942
:100E0800D8A4C6D0000EE56F88510A0DD20EDE6F49
:100E1800010EDF6F020EDE27000EDF23F350DE2700
:100E2800F450DF23E551DE25D96E000EDF21DA6E9E
:100E3800E551A90FE16EE26ADFCFE7FFE52B060E69
:100E4800E565E2D7A90ECC6F7BEC01F0A1D0885103
:100E58000A0DD30EF324D96E010EF420DA6EDF509A
:100E6800E56FE551D8A440D088510A0DD50EF3247A
:100E7800D96E010EF420DA6EDF50DE6FDE51E26FBC
:100E8800E36B88510A0DD70EF324D96E010EF420B6
:100E9800DA6EDF50E46FE251E311D8B40CD0100ED3
:100EA800E219E311D8B407D0E451D8B404D0100E35
:100EB800E419D8A402D0908301D09093300EE2199F
:100EC800E311D8B40DD0400EE219E311D8B408D01C
:100ED800300EE419D8B404D0400EE419D8A402D0D6
:100EE80090811ED090911CD0E505D8A40BD08851D4
:100EF8000A0DD50EF324D96E010EF420DA6EDF50F8
:100F0800F16F0ED0020EE519D8A40AD088510A0D47
:100F1800D50EF324D96E010EF420DA6EDF50F26F8D
:100F28009051D8B435D090A30AD0200EF119D8B476
:100F380004D0200EF219D8A402D08F830AD090A131
:100F480008D0500EF119D8B403D0500EF219D8B405
:100F58008F818F51D8B41CD0010E3F6E000E906F58
:100F6800000EF26FF2C0F1F013D088510A0DD20EC4
:100F7800F324D96E010EF420DA6EDF50000AD8B4DB
:100F880007D0400AD8B463D7C00AD8B426D7700AA5
:100F9800F29E300E886503D0000E886F01D0882B32
:100FA8003A0639C0E5F03AC0E4F0F28E8851E55DC2
:100FB800D8B002D0320EE527320E1E6EE451C2ECD4
:100FC8000FF00001DE6FDF6B8851E5C0E0F0E16BE8
:100FD800E05F000EE15BDE51E01904E1DF51E11949
:100FE800D8B41200FF001200E1CF04F0E2CF05F000
:100FF800D9CF06F0DACF07F0F3CF08F0F4CF09F035
:10100800000E0001946F6E500E0B0D6E9FD0320EC5
:101018003A606DD039500A0DD20EF324D96E010E04
:10102800F420DA6E0F013151F00BDF6E39500A0DE2
:10103800D30EF324D96E010EF420DA6E32CF01F00C
:10104800050E026ED8900132022EFCD731510F0BDB
:10105800080DF3500124DF6E39500A0DD20EF32427
:10106800D96E010EF420DA6E800EDE18D8B40CD0DA
:1010780039500A0DD20EF324D96E010EF420DA6E1F
:10108800400EDE18D8A433D035510F0B0C6E360E37
:101098000A6E0F0E0B6E000E0E6E1DD00E500A2437
:1010A800D96E000E0B20DA6E39500A0DD20E016E81
:1010B800010E026E020E0126000E0222F3500126D6
:1010C800F45002220E500124E16E000E0220E26E5E
:1010D800DFCFE7FF0E2A0C500E5CD8A0DFD7300E0A
:1010E800396403D0000E396E01D0392A3A2A0F012B
:1010F800309F779241D062CF01F0050E026ED890F2
:101108000132022EFCD76150080DF3500124036E02
:101118000304936F609E7790010E936F2DD07794A0
:101128002BD0779C29D0779627D0779825D0779A97
:1011380071BC719C71BE719E71AA1ED04050D8A41A
:101148001BD0140E926F010E406E16D00D50020A7D
:10115800D8B4EDD7060AD8B4E8D7020AD8B4E3D78A
:101168000E0AD8B4DCD7020AD8B451D7060AD8B4C4
:10117800C2D7020AD8B4D5D709C0F4FF08C0F3FF14
:1011880007C0DAFF06C0D9FF05C0E2FF04C0E1FFCF
:1011980042921100000EB96F000EB66F3C50D8B4E1
:1011A80025D06251030DF3CFB3F0F4CFB4F03E5025
:1011B800B325B76F000EB421B86FB751B86FB76BCE
:1011C800000E3C6E6451D8B41200010EB06FB751D6
:1011D8004110B16FB851B26F250E09EC0FF0080E2F
:1011E800816F000E836F010E746F12003B50D8B4EC
:1011F80033D08DC0B3F0300EB317D8B42DD06251B0
:10120800030DF3CFB3F0F4CFB4F0030EB325B76FEB
:10121800000EB421B86FB751B86FB76B8DA902D063
:10122800CC0E03D08DAB02D0CD0EB96F8DC0B3F00C
:10123800300EB317D8B41200000E3B6E6551D8B407
:101248001200010EB06FB751B911B16FB851B26F3A
:10125800250E09EC0FF0C3D73F50D8B429D08F51D1
:10126800D8B426D08F05B66F6251030DF3CFB3F013
:10127800F4CFB4F0030EB325B76F000EB421B86FE6
:10128800B751B86FB76BB651CE0FB96F000E8F6FED
:10129800000E3F6E6651D8B41200010EB06FB75100
:1012A800B911B16FB851B26F250E09EC0FF097D78D
:1012B8003D50D8B41200000EB96FB9C0B3F06FC07A
:1012C800B4F070C0B5F0B32B03D0D890B533B433B5
:1012D800B32FFBD70001B4A103D0B9C0B6F004D036
:1012E800B92B010EB965E9D76F517011D8B4120046
:1012F8006251030DF3CFB3F0F4CFB4F0030EB3256E
:10130800B76F000EB421B86FB751B86FB76BB6514D
:10131800D00FB96F000E3D6E6851D8B41200010E9F
:10132800B06FB751B911B16FB851B26F250E09EC52
:101338000FF055D7000EB26F000EB16F010EB36FEC
:101348001E50B325D96EDA6ADF501F6E1F50B127C1
:10135800000EB223B32B060EB365F2D71E50D96E1A
:10136800DA6A070ED926DF501F6E1F50216E206AD9
:101378001E50D96EDA6A080ED926DF50226E225026
:101388002012000E21122050B1272150B223B15152
:10139800B211D8A41200000E2B6E000E7B6F000E47
:1013A8007A6F1E50D96EDA6A030ED926DF50B06FF5
:1013B8001E50D96EDA6A060ED926DF50B46F3CD0BB
:1013C800B4C079F0B4C02CF01200B4512C18D8A4D1
:1013D80012002CC079F01200B4512C18D8A41200B5
:1013E800000E796F1200000E746F1200B4C078F00E
:1013F800B405D8B41200020EB419D8B408D0050E3A
:10140800B419D8B404D0060EB419D8A403D0010E68
:10141800776F1200030EB419D8B404D0040EB419AF
:10142800D8A41200010E7B6F1200000E2B6E000E66
:101438007B6F000E7A6F1200B0513A0AD8B4C5D744
:10144800010AD8B4C9D7060AD8B4CDD7020AD8B485
:10145800B7D77F0AD8B4CAD7010AD8A41200E5D7EB
:10146800000E0001C26F000EC06F000EC16F000EAB
:10147800C26FC251B80FD96EDA6A80CF1EF0010E62
:101488001E16D8901E36D8901E36D8901E3680CF9D
:101498001FF0020E1F16D8901F34206E80CF21F047
:1014A800D8902132020E21168038E8461F0B010B16
:1014B800211020101E10DF6EC251B80FD96EDA6AE3
:1014C8000F0EDF16C251B00FD96EDA6A8450030BC3
:1014D800DF6E00F000F000F000F000F000F000F027
:1014E80000F000F000F000F000F000F000F000F074
:1014F80000F00001C22B070EC265BBD7000EC26FF9
:10150800C2C01EF0010E1E261E50B80FD96EDA6A30
:10151800C251B80FE16EE26ADE50E618D8B4C02BAB
:10152800C2C01EF0010E1E261E50B00FD96EDA6A18
:10153800C251B00FE16EE26ADE50E618D8B4C12B92
:10154800C22B060EC265DCD7050EC0650DD0B8519A
:10155800FF0A030B626FB851FF0A1E6ED8901E3245
:10156800D8901E30030B616F050EC16504D0B051D1
:10157800030B376E1200010E376E1200206EF29EBA
:10158800000E3A6E000E396E000E0001886F000ED4
:10159800216E000E226E21500A0DD20E1E6E010E13
:1015A8001F6EF3501E26F4501F2222501E24D96E9F
:1015B800000E1F20DA6E000EDF6E222A090E22644A
:1015C800EAD7212A310E2164E4D7000E226E225078
:1015D800A90FD96EDA6A000EDF6E222A060E22647F
:1015E800F6D793949386708A7098800E6F6E6E50BB
:1015F800E00B800AD8A4FBD72004D8A402D0890E17
:1016080001D0830E0E01436FF40E446F020E456F36
:10161800200E606E200E0F01306F200E0E01E16F5C
:10162800E00EE06F200EE56FE00EE46F000EF96F3C
:10163800FE0EF86F000EE96F800EE86F000EED6F7A
:10164800400EEC6F000EF16F800EF06F000EF56F1C
:10165800400EF46F000EFD6FF00EFC6F000E6F6E03
:101668006ECF1EF0E00E1E16D8A4FAD7000E0F019A
:10167800116F000E126F000E156F000E166F000E20
:10168800776E230E766E7868F28E1200B8C0BCF0C2
:10169800BD6BBE6BB735BC3701E3BD81BC51BF6FB5
:1016A800BF51D8A407D0000EB66F000EB76F000E5A
:1016B800B86F1200BBC0BCF0BD6BBE6BBA35BC378F
:1016C80001E3BD81BC51C46FC451D8A407D0000E3A
:1016D800B66F000EB76F000EB86F1200C4517B0FC3
:1016E800BF27B8C0C4F0BB51C41B800EC417B78F46
:1016F800BA8FFF0EB917FF0EBA17000EBB17000EF0
:10170800C06F000EC16F000EC26F070EC36FB6A187
:1017180006D0B951C027BA51C123BB51C223D890B2
:10172800B833B733B633D890B937BA37BB37C32FC6
:10173800EED7090EC36FB6A106D0B951C027BA516A
:10174800C123BB51C223D890B833B733B633D8902E
:10175800C233C133C033C32FEED7C0C01EF0C1C0DF
:101768001FF0C2C020F0BFC021F0C4C022F090EC2E
:101778000CF01EC0B6F01FC0B7F020C0B8F01200C1
:1017880020C0B0F0B16BB26B1F34B03701E3B18148
:10179800B051BA6FBA51D8A409D0000E1E6E000E0F
:1017A8001F6E000E206E000E216E1200170EB06F15
:1017B8001EC0B1F01FC0B2F020C0B3F0B029B46FA2
:1017C80004D0D890B333B233B133B42FFAD7000171
:1017D800B151B56F1F8EFF0E1E16FF0E1F16000E9D
:1017E80020161E50B66F1F50B76F2050B86FB96BD8
:1017F8008E0EBA5FBAAF0DD0BA51800A8F0FD8A03B
:10180800CCD7D890B933B833B733B633BA3FF9D752
:101818000DD0170EBA6507D0C0D7D890B637B737EE
:10182800B837B937BA07BA51D8A4F7D7B551D8B429
:1018380008D0B91FB81FB71FB66D000EB723B8235D
:10184800B923B6C01EF0B7C01FF0B8C020F0B9C0A9
:1018580021F01200E7EC0CF07651D8B41200000E1B
:10186800766F3104D8A406D0010E416E010E3C6E8D
:10187800010E826F020E3118D8A404D0010E3B6EFF
:10188800100E8D6F030E3118D8A406D0020E416ECB
:10189800010E3C6E010E826F040E3118D8A406D0DA
:1018A800030E416E010E3C6E010E826F050E31185B
:1018B800D8A406D0040E416E010E3C6E010E826F54
:1018C800060E3118D8A404D0010E3B6E200E8D6F81
:1018D800070E3118D8A406D0030E416E010E3C6ED7
:1018E800010E826F080E3118D8A406D0020E416E80
:1018F800010E3C6E010E826F090E3118D8A406D075
:10190800010E416E010E3C6E010E826F3050D8A45C
:101918001200CEEC08F012002150D8B405D01E50A9
:101928001F102010D8A40CD0000E1E6E000E1F6EC3
:10193800000E206E1200212AD89020321F321E324B
:10194800000E1E14B06F000E1F14B16FFE0E20148F
:10195800B26FB051B111B211D8B40CD0ECD7212A62
:10196800010E1E26000E1F22000E2022D8902032C3
:101978001F321E32000E1E14B06F000E1F14B16FFE
:10198800FF0E2014B26FB051B111B211D8B406D005
:10199800E6D72106D8901E361F3620361FBE03D044
:1019A800020E2160F6D721A01F9ED8902132215027
:1019B80020122250D8A4208E1EC01EF01FC01FF077
:1019C80020C020F012003850FF0AB36FD890B3310E
:1019D800030BB86FB851D8B409D07351B819D8B43B
:1019E80009D0010E306EB8C073F004D0000E306E0E
:1019F800000E736FB8A102D0000E0BD0B8A302D0AE
:101A0800010E07D0B8A502D0020E03D0B8A702D0A5
:101A1800030EB76F3050D8B412006251030DF3CFE4
:101A2800B3F0F4CFB4F0030EB325B56F000EB421B4
:101A3800B66FB551B66FB56BB751C80FB86F000E1A
:101A4800306E6751D8B41200010EB06FB551B8119D
:101A5800B16FB651B26F250E09EC0FF0080E816F09
:101A6800000E836F010E746F1200CBC0CDF0D890BA
:101A7800CD37D890CD377C0ECD17C250830BCD1102
:101A8800C26EC2A203D0CD6BCD2B02D00001CD6BAC
:101A9800010ECE6FCD2B02D0D890CE37CD2FFCD7EC
:101AA800C2A004D00001CF6BCF2B02D00001CF6BB6
:101AB800010ED06FCF2B02D0D890D037CF2FFCD7C4
:101AC8000001D051CE11C212C2B2FED7C350C4CF4A
:101AD800CDF0CE6BCDC0CEF0CD6BCD11D16FCE5148
:101AE800D26F670EC26F700EC36FD1C0C4F0D2C080
:101AF800C5F0ECEC0FF0D1C0CBF0D2C0CCF01200A6
:101B080060C036F0010E0001B06F36C0B1F0B26BA4
:101B1800060E09EC0FF0010E1F6EF40E1E6E92EC0D
:101B28000FF0000E0001806F000E3C6E000E3B6E41
:101B3800000E3F6E000E3D6E6151D8B410D0010EFC
:101B4800B06F62C0B3F0030EB317010EB325B16FC7
:101B5800B26B000EB223170E09EC0FF009D0010E7C
:101B6800B06F000EB26F050EB16F170E09EC0FF0D3
:101B7800030E1F6EE80E1E6E92EC0FF08C928C9482
:101B88001200CC0EF66E200EF76E000EF86E0900ED
:101B9800F5CFF1F00900F5CFF2F00900F5CFF3F039
:101BA800D20EF66E200EF76E000EF86E0900F5CF15
:101BB80041F001EED2F011EEF4F0EE6AE550E1509A
:101BC800FCE1E250FAE101EE00F0D20EEE6AE8061E
:101BD800FDE100EE60F0500EEE6AE806FDE100EE71
:101BE80025F01C0EEE6AE806FDE142904292000ED6
:101BF800F86E000176EF03F0000E206E14D01E5030
:101C08002024D96EDA6A0A0E2E24E16EE26A010EE9
:101C1800E222DFCFE7FF2E2AC80E2E18D8A402D062
:101C2800000E2E6E202A1F50205CD8A0E8D7F29E06
:101C38001F507C277D51D8A412D00A0E2D24D96EAE
:101C4800DA6A010EDA22DF50AD6E2D2AC80E2D1881
:101C5800D8A402D0000E2D6E7C07010E7D6F9D88E2
:101C6800F28E1200000E0F015A6F000E5B6F000E0D
:101C7800916E000EA86E000E906E000E5D6F000E45
:101C88005C6F000E806E000E896E92688168000E8F
:101C98008A6EFB0E936EBF0E946E000E826E000E5F
:101CA8008B6E000E836E000E8C6EF00E956E8C821D
:101CB8008C848C86000E846E070E966E000E8D6ED8
:101CC80012007751D8B41200000E776F000E356EEF
:101CD800F29E010EB06F000EB26F000EB16F150EBE
:101CE80009EC0FF0010E1F6EF40E1E6E92EC0FF051
:101CF800000E1F6E190E1E6E7AEC0FF0010E1F6E8D
:101D0800F40E1E6E92EC0FF084EC0DF0F28E030EC2
:101D18001F6EE80E1E6E92EC0FF01200000E226E7F
:101D2800000E216E000E236E0BD01E502324D96E98
:101D3800DA6ADF50206E20502126000E2222232A44
:101D48001F50235CD8A0F1D721500008216E2250E3
:101D5800D8A0E82A0008226E1E502324D96EDA6A19
:101D680022C0DFFF1E502324D96EDA6A010ED9265D
:101D780021C0DFFF1200000E246E000E236E2050DB
:101D88002110D8B41CD0010E226E04D0D890203671
:101D98002136222A21AEFAD7D8902336243620506D
:101DA8001E5C21501F58D8A005D020501E5E21501F
:101DB8001F5A2380D89021322032222EEDD723C0FB
:101DC8001EF024C01FF01200B251B311D8B418D0BD
:101DD800010EB46F04D0D890B237B337B42BB3AF79
:101DE800FAD7B251B05DB351B159D8A004D0B251AD
:101DF800B05FB351B15BD890B333B233B42FF1D7DE
:101E0800B0C0B0F0B1C0B1F01200246E7E0E000177
:101E1800956F9669060E976F24C098F0B0C099F038
:101E2800B2C09AF0B1C09BF0EF0E9E6F960E1E6E78
:101E3800060E1F6E92EC0EF0950E1E6E0A0E1F6EA9
:101E480000EC0EF00A0E2B6E1200000E236EB4AFDB
:101E580006D0B36DB41FD8B0B42B010E236EB3C037
:101E68001EF0B4C01FF0206A8E0E216E23C022F02F
:101E780090EC0CF01EC0B3F01FC0B4F020C0B5F059
:101E88001200000E226E2250A90FD96EDA6A000ED7
:101E9800DF6E222A060E2264F6D734EC0AF02BEC09
:101EA80010F0030E626502D0010E626F030E6165C9
:101EB8001200010E616F1200C2C0C8F0C96B000E9B
:101EC800CA6F000ECB6FC50EC76FC80EB56FC3C003
:101ED800B6F0C4C0B7F0C70EB86F5DEC05F0C8C067
:101EE800D9FFC9C0DAFF000EDF6E1200949C948EF1
:101EF800A7961EC0AFFF1FC07DFF000E7D6E000EAF
:101F08007D6E200EAC6E900EAB6E900EAB6EA798E9
:101F18009E989F989D989F9A9D8A12000ED0000EB9
:101F2800216E000E206E215007E1A50E205CD8B06E
:101F380003D0204A212AF7D704001E06D8A01F067E
:101F48001E28EDE11F28D8B41200E9D7322A040E62
:101F5800326006D032A002D08C9012008C80120021
:101F6800030E326405D00F0E326002D08C8012004E
:101F78000E0E32641200000E326E12001F6E080E32
:101F8800206E000E216ED8901F342134216ED89017
:101F98001F361E50215CD8A002D01E50215E202E74
:101FA800F2D7215012007B51D8B412007A2B030EBD
:101FB8007A6505D0000E7A6F000E7B6F1200950EC1
:101FC8001E6E0A0E1F6E00EC0EF00A0E2B6E12002B
:101FD800000EC76F000EC86FD00EC96F200ECA6FF3
:101FE800C40EC66FC70EB56FC2C0B6F0C3C0B7F097
:101FF800C60EB86F5DEC05F01200080E0F015C6F9D
:10200800C08EC050C70B0809C06EC050F80B02093B
:10201800C06EC198C19AC196C150F80B0409C16E2F
:10202800C2801200106E080E116E000E126ED8904B
:1020380010341234126ED89010360F50125CD8A09B
:1020480002D00F50125E112EF2D712501200370430
:10205800D8A402D0190E01D00F0E606F3C0E636F2A
:10206800010E646F010E656F010E666F010E676FDA
:10207800000E686F12001E502002F3CF22F0F4CF3A
:1020880023F01E502102F35023261F502002F35044
:10209800232622C01EF023C01FF012009E909F909E
:1020A8009D80F60ECF6E3C0ECE6E310ECD6E1200B8
:1020B800F294F28AF194000ED66E0C0ED76E840E4E
:0720C800D56E1200FFFFFFBF
:0320D0001200FFFC
:1064FC00009870FE706471CA7130729672F9725C99
:10650C0073C27383709E7004716A71D07136729C01
:10651C0072FF726273C8738670A17007716D71D34C
:10652C007139729F7202736573CB738970A4700A90
:10653C00717071D6713C72A27205736873CE738CD4
:10654C0070A7700D717371D9713F72A57208736B5E
:10655C0073D1738F70AA7010717671DC714272A84E
:10656C00720B736E73D4739270AD7013717971DF9B
:10657C00717D709B7001716771CD7133729972FC72
:10658C00725F73C57325741E7517768376EF765B11
:10659C0077C77733789F780B797779317A9D7A57EB
:1065AC007BC37B2F7C9B7C077D737DDF7D4B7EB714
:1065BC007E237F8F7F43743C751A768676F2765EE7
:1065CC0077CA773678A2780E797A79347AA07A5AA3
:1065DC007BC67B327C9E7C0A7D767DE27D4E7EBACC
:1065EC007E267F927F46743F751D768976F576619F
:1065FC0077CD773978A57811797D79377AA37A5D5B
:10660C007BC97B357CA17C0D7D797DE57D517EBD83
:10661C007E297F957F4974427520768C76F8766456
:10662C0077D0773C78A878147980793A7AA67A6012
:10663C007BCC7B387CA47C107D7C7DE87D547EC03B
:10664C007E2C7F987F4C74457523768F76FB76670E
:10665C0077D3773F78AB78177983793D7AA97A63CA
:10666C007BCF7B3B7CA77C137D7F7DEB7D577EC3F3
:10667C007E2F7F9B7F4F74487526769276FE766AC6
:10668C0077D6774278AE781A798679407AAC7A6682
:10669C007BD27B3E7CAA7C167D827DEE7D5A7EC6AB
:1066AC007E327F9E7F52744B752976957601776D7D
:1066BC0077D9774578B1781D798979437AAF7A693A
:1066CC007BD57B417CAD7C197D857DF17D5D7EC963
:1066DC007E357FA17F4572AB720E737173D7739544
:1066EC0070B07016717C71E27148727473807000B6
:1066FC0000000000000000000055744E752C7698C8
:10670C007604777077DC774878B47820798C794682
:10671C007AB27A6C7BD87B447CB07C1C7D887DF40F
:10672C007D607ECC7E387FA47F587451752F769B0C
:10673C007607777377DF774B78B77823798F79493A
:10674C007AB57A6F7BDB7B477CB37C1F7D8B7DF7C7
:10675C007D637ECF7E3B7FA77F5B74547532769EC4
:10676C00760A777677E2774E78BA78267992794CF2
:10677C007AB87A727BDE7B4A7CB67C227D8E7DFA7F
:10678C007D667ED27E3E7FAA7FB37019717F71E5E4
:10679C00714B72AE7211737773DA73B6701C7182AF
:1067AC0071E8714E72B17214737A73DD73B9701F24
:1067BC00718571EB715172B47217737D73E073BC98
:1067CC007022718871EE715472B7721A738073E310
:1067DC0073BF7025718B71F1715772BA721D73830F
:1067EC0073E673C27028718E71F4715A72BD722087
:1067FC00738673E973C5702B719171F7715D72C0FB
:10680C007223738973EC73C8702E719471FA716072
:10681C0072C37226738C73EF73CB7031719771FDE9
:10682C00716372C67229738F73F273CE7034719A5E
:10683C007100726672C9722C739273F573D17037D2
:10684C00719D7103726972CC722F739573F873D446
:10685C00703A71A07106726C72CF7232739873FBBE
:10686C0073D7703D71A37109726F72D27235739BBD
:10687C0073FE73DA704071A6710C727272D5723835
:10688C00739E730174DD704371A9710F727572D8A8
:10689C00723B73A1730474E0704671AC7112727820
:1068AC0072DB723E73A4730774E3704971AF711598
:1068BC00727B72DE724173A7730A74E6704C71B20C
:1068CC007118727E72E1724473AA730D74E9704F81
:1068DC0071B5711B728172E4724773AD731074ECF5
:1068EC00705271B8711E728472E7724A73B073136E
:1068FC007480700000000000000000000000000028
:10690C0000EF705571BB7121728772EA724D73B3CF
:10691C00731674F2705871BE7124728A72ED7250D3
:10692C0073B6731974F5705B71C17127728D72F047
:10693C00725373B9731C74F8705E71C4712A7290BF
:10694C0072F3725673BC731F74FB706171C7712D37
:10695C00729372F6725973BF7322747074697535C1
:10696C0076A1767977E57751784F7A097B757B4DEF
:10697C007C73746C753876A4767C77E8775478528F
:10698C007A0C7B787B287D76746F753B76A7767F47
:10699C0077EB775778557A0F7B7B7B7875447682CB
:1069AC00748B77877B5F7C8A75C27606786E7C9D4C
:1069BC0077D17FCE767E78367BBE7DAC7718789F8C
:1069CC0075AF77AB7B5B7DB277A5752178BB74B463
:1069DC0075C774C075CA74C375CD74C675D074C9C7
:1069EC0075D374CC75D674CF75D974D275DC74D557
:1069FC0075DF74D875E274DB75E574DE75E874E1E7
:106A0C0075EB74E475EE74E775F174EA75F474ED76
:106A1C0075F774F075FA74F375FD74F6750075F905
:106A2C00750375FC750675FF75097502760C750591
:106A3C00760F75087612750B76287421752B7424D5
:106A4C00752E74277531742A75377430753A743312
:106A5C00753D74367534742D75C474BD75407439B8
:106A6C00755E74577561745A7564745D756A746378
:106A7C0075677460756D746675BE74B775C174BADC
:106A8C007515750E761B7514761875117680700059
:106A9C0000000000000000000000000000000000EA
:106AAC0000000000000000000000000000000000DA
:106ABC0000000000000000000000000000000000CA
:106ACC0000000000000000000000000000000000BA
:106ADC0000000000000000000000000000000000AA
:106AEC00000000000000000000000000000000009A
:106AFC00000000000000000000000000000000008A
:106B0C00000000000000000000707473747674794B
:106B1C00747C747F748274857488748B748E749195
:106B2C0074947497749A749D74A074A374A674A9C5
:106B3C0074AC74AF74B274B574B874BB7469756C9E
:106B4C00756F757275757578757B757E75817584C5
:106B5C007587758A758D7590759375967599759CF5
:106B6C00759F75A275A575A875AB75AE75B175B425
:106B7C0075357638763B763E764176447647764A5E
:106B8C00764D7650765376567659765C765F76628D
:106B9C0076657668766B766E767176747677767ABD
:106BAC00767D768076A176A476A776AA76AD76B039
:106BBC0076B376B676B976BC76BF76C276C576C82D
:106BCC0076CB76CE76D176D476D776DA76DD76E05D
:106BDC0076E376E676E976EC760D77107713771612
:106BEC007719771C771F772277257728772B772EC5
:106BFC00773177347737773A773D774077437746F5
:106C0C007749774C774F7752775577587779777CE8
:106C1C00777F778277857788778B778E7791779464
:106C2C007797779A779D77A077A377A677A977AC94
:106C3C0077AF77B277B577B877BB77BE77C177C4C4
:106C4C0077E577E877EB77EE77F177F477F777FA04
:106C5C0077FD7700780378067809780C780F78122E
:106C6C0078157818781B781E782178247827782A5C
:106C7C00782D7830785178547857785A785D7860D8
:106C8C00786378667869786C786F787278757878CC
:106C9C00787B787E788178847887788A788D7890FC
:106CAC00789378967899789C78BD78C078C378C6B4
:106CBC0078C978CC78CF78D278D578D878DB78DE6C
:106CCC0078E178E478E778EA78ED78F078F378F69C
:106CDC0078F978FC78FF7802790579087929792C8C
:106CEC00792F793279357938793B793E7941794404
:106CFC007947794A794D7950795379567959795C34
:106D0C00795F796279657968796B796E7971797463
:106D1C0079957998799B799E79A179A479A779AAA3
:106D2C0079AD79B079B379B679B979BC79BF79C2D3
:106D3C0079C579C879CB79CE79D179D479D779DA03
:106D4C0079DD79E079E379E679E979EC79EF79F233
:106D5C0079F579F879FB79FE79017A047A077A0A60
:106D6C007A0D7A107A137A167A197A1C7A1F7A228B
:106D7C007A257A287A2B7A2E7A4F7A527A557A5843
:106D8C007A5B7A5E7A617A647A677A6A7A6D7A70FB
:106D9C007A737A767A797A7C7A7F7A827A857A882B
:106DAC007A8B7A8E7A917A947A977A9A7ABB7ABE1F
:106DBC007AC17AC47AC77ACA7ACD7AD07AD37AD69B
:106DCC007AD97ADC7ADF7AE27AE57AE87AEB7AEECB
:106DDC007AF17AF47AF77AFA7AFD7A007B037B06F9
:106DEC007B097B0C7B0F7B127B157B187B1B7B1E23
:106DFC007B217B247B277B2A7B2D7B307B337B3653
:106E0C007B397B3C7B3F7B427B457B487B4B7B4E82
:106E1C007B517B547B757B787B7B7B7E7B817B84FE
:106E2C007B877B8A7B8D7B907B937B967B997B9CF2
:106E3C007B9F7BA27BA57BA87BAB7BAE7BB17BB422
:106E4C007BB77BBA7BBD7BC07BE17BE47BE77BEADA
:106E5C007BED7BF07BF37BF67BF97BFC7BFF7B0292
:106E6C007C057C087C0B7C0E7C117C147C177C1ABA
:106E7C007C1D7C207C237C267C297C2C7C4D7C50AE
:106E8C007C537C567C597C5C7C5F7C627C657C682A
:106E9C007C6B7C6E7C717C747C777C7A7C7D7C805A
:106EAC007C837C867C897C8C7C8F7C927C957C988A
:106EBC007CB97CBC7CBF7CC27CC57CC87CCB7CCECA
:106ECC007CD17CD47CD77CDA7CDD7CE07CE37CE6FA
:106EDC007CE97CEC7CEF7CF27CF57CF87CFB7CFE2A
:106EEC007C017D047D257D287D2B7D2E7D317D349F
:106EFC007D377D3A7D3D7D407D437D467D497D4C92
:106F0C007D4F7D527D557D587D5B7D5E7D617D64C1
:106F1C007D677D6A7D6D7D707D917D947D977D9A79
:106F2C007D9D7DA07DA37DA67DA97DAC7DAF7DB231
:106F3C007DB57DB87DBB7DBE7DC17DC47DC77DCA61
:106F4C007DCD7DD07DD37DD67DD97DDC7DFD7D0055
:106F5C007E037E067E097E0C7E0F7E127E157E18C9
:106F6C007E1B7E1E7E217E247E277E2A7E2D7E30F9
:106F7C007E337E367E397E3C7E3F7E427E457E4829
:106F8C007E697E6C7E6F7E727E757E787E7B7E7E69
:106F9C007E817E847E877E8A7E8D7E907E937E9699
:106FAC007E997E9C7E9F7EA27EA57EA87EAB7EAEC9
:106FBC007EB17EB47ED57ED87EDB7EDE7EE17EE445
:106FCC007EE77EEA7EED7EF07EF37EF67EF97EFC39
:106FDC007EFF7E027F057F087F0B7F0E7F117F1463
:106FEC007F177F1A7F1D7F207F417F447F477F4A19
:106FFC007F4D7F507F537F567F597F5C7F5F7F62D1
:10700C007F657F687F6B7F6E7F717F747F777F7A00
:10701C007F7D7F807F837F867F897F8C7FAD7FB0F4
:10702C007FB37FB67FB97FBC7FBF7FC27FC57FC870
:10703C007FCB7FCE7FD17FD47FD77FDA7FDD7FE0A0
:10704C007FE37FE67FE97FEC7FEF7FF27FF57FF8D0
:10705C007F01000A006400E80310274144432064C8
:10706C0069676974616C20256400286E756C6C29E5
:10707C00002030003030003130003230003330002E
:10708C003430003530003630003730002031002DE0
:10709C0031003131003231003331003431003531BF
:1070AC0000363100373100413100423100433100AC
:1070BC004431004531004631004731004831004928
:1070CC0031004A31004B31004C31004D31004E3112
:1070DC000050310051310052310053310054310015
:1070EC005531005631005731005831005931005A92
:1070FC0031002032002D3200313200323200333276
:10710C000034320035320036320037320041320062
:10711C0042320043320044320045320046320047CE
:10712C0032004832004932004A32004B32004C32B5
:10713C00004D32004E3200503200513200523200BB
:10714C005332005432005532005632005732005838
:10715C0032005932005A32002033002D33003133C3
:10716C000032330033330034330035330036330010
:10717C00373300413300423300433300443300457E
:10718C0033004633004733004833004933004A3359
:10719C00004B33004C33004D33004E330050330062
:1071AC0051330052330053330054330055330056DF
:1071BC0033005733005833005933005A330020340E
:1071CC00002D3400313400323400333400343400B8
:1071DC003534003634003734004134004234004337
:1071EC0034004434004534004634004734004834FD
:1071FC00004934004A34004B34004C34004D340008
:10720C004E34005034005134005234005334005486
:10721C003400553400563400573400583400593477
:10722C00005A34002035002D350031350032350040
:10723C0033350034350035350036350037350041EF
:10724C0035004235004335004435004535004635A0
:10725C00004735004835004935004A35004B3500AC
:10726C004C35004D35004E3500503500513500522F
:10727C00350053350054350055350056350057351B
:10728C00005835005935005A35002036002D36008F
:10729C00313600323600333600343600353600369F
:1072AC00360041360042360043360044360045363F
:1072BC00004636004736004836004936004A36004C
:1072CC004B36004C36004D36004E360050360051D1
:1072DC0036005236005336005436005536005636BA
:1072EC00005736005836005936005A360020370001
:1072FC002D37003137003237003337003437003543
:10730C0037003637004137004237004337004437E7
:10731C0000453700463700473700483700493700EB
:10732C004A37004B37004C37004D37004E37005072
:10733C003700513700523700533700543700553758
:10734C00005637005737005837005937005A370066
:10735C002038002D380031380032380033380034F2
:10736C00380035380036380038380041380042389B
:10737C000043380044380045380046380047380090
:10738C004838004938004A38004B38004C38004D1A
:10739C0038004E38005038005138005238005338FD
:1073AC00005438005538005638005738005838000B
:1073BC005938005A38002039002D39003139003243
:1073CC003900333900343900353900363900413948
:1073DC000042390043390044390045390046390030
:1073EC004739004839004939004A39004B39004CBB
:1073FC0039004D39004E390050390051390052399D
:10740C0000533900543900553900563900573900AA
:10741C005839005939005A390020410021410023C4
:10742C004100254100264100274100284100294107
:10743C00002A41002C41003141003241003341000F
:10744C0034410035410036410037410038410039A4
:10745C0041003A41003B41003C41003D41003E416E
:10746C000040410041410042410043410044410081
:10747C004541004641004741004841004941004A0E
:10748C0041004B41004C41004D41004E41004F41E9
:10749C000050410051410052410053410054410001
:1074AC005541005641005741005841005941005A7E
:1074BC0041005B41005D410060410061410062415F
:1074CC000063410064410065410066410067410072
:1074DC006841006941006A41006B41006C41006DDC
:1074EC0041006E41006F41007041007141007241DA
:1074FC0000734100744100754100764100774100F2
:10750C007841007941007A41007B41007C41007D4B
:10751C004100204200214200234200254200264225
:10752C00002742002842002942002A42002C420037
:10753C0031420032420033420034420035420036C0
:10754C0042003742003842003942003A42003B4286
:10755C00003C42003D42003E42004042004142009D
:10756C00424200434200444200454200464200472A
:10757C0042004842004942004A42004B42004C4201
:10758C00004D42004E42004F42005042005142001A
:10759C00524200534200544200554200564200579A
:1075AC0042005842005942005A42005B42005D4280
:1075BC00006042006142006242006342006442008B
:1075CC006542006642006742006842006942006AF8
:1075DC0042006B42006C42006D42006E42006F42F2
:1075EC00007042007142007242007342007442000B
:1075FC007542007642007742007842007942007A68
:10760C0042007B42007C42007D420020430031431B
:10761C00003243003343003443003543003643000B
:10762C003743003843003943004143004243004391
:10763C00430044430045430046430047430048434E
:10764C00004943004A43004B43004C43004D430068
:10765C004E43004F430050430051430052430053EC
:10766C0043005443005543005643005743005843CE
:10767C00005943005A430020440031440032440076
:10768C003344003444003544003644003744003859
:10769C004400394400414400424400434400444403
:1076AC000045440046440047440048440049440017
:1076BC004A44004B44004C44004D44004E44004F9F
:1076CC00440050440051440052440053440054447C
:1076DC000055440056440057440058440059440097
:1076EC005A440020450031450032450033450034F2
:1076FC0045003545003645003745003845003945CD
:10770C0000414500424500434500444500454500C5
:10771C004645004745004845004945004A45004B51
:10772C0045004C45004D45004E45004F4500504529
:10773C000051450052450053450054450055450045
:10774C005645005745005845005945005A450020FC
:10775C00460031460032460033460034460035467A
:10776C000036460037460038460039460041460090
:10777C004246004346004446004546004646004704
:10778C0046004846004946004A46004B46004C46D7
:10779C00004D46004E46004F4600504600514600F4
:1077AC005246005346005446005546005646005774
:1077BC0046005846005946005A46002047003147BB
:1077CC000032470033470034470035470036470046
:1077DC0037470038470039470041470042470043CC
:1077EC004700444700454700464700474700484785
:1077FC00004947004A47004B47004C47004D4700A3
:10780C004E47004F47005047005147005247005326
:10781C004700544700554700564700574700584704
:10782C00005947005A4700204800314800324800B0
:10783C003348003448003548003648003748003893
:10784C004800394800414800424800434800444839
:10785C000045480046480047480048480049480051
:10786C004A48004B48004C48004D48004E48004FD9
:10787C0048005048005148005248005348005448B2
:10788C0000554800564800574800584800594800D1
:10789C005A4800204900314900324900334900342C
:1078AC004900354900364900374900384900394903
:1078BC000041490042490043490044490045490000
:1078CC004649004749004849004949004A49004B8C
:1078DC0049004C49004D49004E49004F4900504960
:1078EC000051490052490053490054490055490080
:1078FC005649005749005849005949005A49002037
:10790C004A00314A00324A00334A00344A00354AB0
:10791C0000364A00374A00384A00394A00414A00CA
:10792C00424A00434A00444A00454A00464A00473E
:10793C004A00484A00494A004A4A004B4A004C4A0D
:10794C00004D4A004E4A004F4A00504A00514A002E
:10795C00524A00534A00544A00554A00564A0057AE
:10796C004A00584A00594A005A4A00204B00314BF1
:10797C0000324B00334B00344B00354B00364B0080
:10798C00374B00384B00394B00414B00424B004306
:10799C004B00444B00454B00464B00474B00484BBB
:1079AC0000494B004A4B004B4B004C4B004D4B00DD
:1079BC004E4B004F4B00504B00514B00524B005361
:1079CC004B00544B00554B00564B00574B00584B3B
:1079DC0000594B005A4B00414C00424C00434C00A8
:1079EC00444C00454C00464C00474C00484C004968
:1079FC004C004A4C004B4C004C4C004D4C004E4C37
:107A0C00004F4C00504C00514C00524C00534C0059
:107A1C00544C00554C00564C00574C00584C0059D7
:107A2C004C005A4C00204D00314D00324D00334D6E
:107A3C0000344D00354D00364D00374D00384D00AB
:107A4C00394D00414D00424D00434D00444D004521
:107A5C004D00464D00474D00484D00494D004A4DE4
:107A6C00004B4D004C4D004D4D004E4D004F4D0008
:107A7C00504D00514D00524D00534D00544D00558A
:107A8C004D00564D00574D00584D00594D005A4D64
:107A9C0000204E00314E00324E00334E00344E006A
:107AAC00354E00364E00374E00384E00394E0041F0
:107ABC004E00424E00434E00444E00454E00464E92
:107ACC0000474E00484E00494E004A4E004B4E00B7
:107ADC004C4E004D4E004E4E004F4E00504E00513D
:107AEC004E00524E00534E00544E00554E00564E12
:107AFC0000574E00584E00594E005A4E00414F0050
:107B0C00424F00434F00444F00454F00464F004743
:107B1C004F00484F00494F004A4F004B4F004C4F0D
:107B2C00004D4F004E4F004F4F00504F00514F0033
:107B3C00524F00534F00544F00554F00564F0057B3
:107B4C004F00584F00594F005A4F002050003150F1
:107B5C000032500033500034500035500036500085
:107B6C00375000385000395000415000425000430B
:107B7C0050004450004550004650004750004850BB
:107B8C00004950004A50004B50004C50004D5000E2
:107B9C004E50004F50005050005150005250005366
:107BAC00500054500055500056500057500058503B
:107BBC00005950005A5000205100315100325100F0
:107BCC0033510034510035510036510037510038D3
:107BDC005100395100415100425100435100445170
:107BEC000045510046510047510048510049510091
:107BFC004A51004B51004C51004D51004E51004F19
:107C0C0051005051005151005251005351005451E8
:107C1C000055510056510057510058510059510010
:107C2C005A5100205200315200325200335200346B
:107C3C005200355200365200375200385200395239
:107C4C00004152004252004352004452004552003F
:107C5C004652004752004852004952004A52004BCB
:107C6C0052004C52004D52004E52004F5200505296
:107C7C0000515200525200535200545200555200BF
:107C8C005652005752005852005952005A52002076
:107C9C0053003153003253003353003453003553E7
:107CAC00003653003753003853003953004153000A
:107CBC00425300435300445300455300465300477E
:107CCC0053004853004953004A53004B53004C5344
:107CDC00004D53004E53004F53005053005153006E
:107CEC0052530053530054530055530056530057EE
:107CFC0053005853005953005A5300205400315428
:107D0C0000325400335400345400355400365400BF
:107D1C003754003854003954004154004254004345
:107D2C0054004454004554004654004754004854F1
:107D3C00004954004A54004B54004C54004D54001C
:107D4C004E54004F540050540051540052540053A0
:107D5C005400545400555400565400575400585471
:107D6C00005954005A54002055003155003255002A
:107D7C00335500345500355500365500375500380D
:107D8C0055003955004155004255004355004455A6
:107D9C0000455500465500475500485500495500CB
:107DAC004A55004B55004C55004D55004E55004F53
:107DBC00550050550051550052550053550054551F
:107DCC00005555005655005755005855005955004B
:107DDC005A550020560031560032560033560034A6
:107DEC005600355600365600375600385600395670
:107DFC00004156004256004356004456004556007A
:107E0C004656004756004856004956004A56004B05
:107E1C0056004C56004D56004E56004F56005056CC
:107E2C0000515600525600535600545600555600F9
:107E3C005656005756005856005956005A560020B0
:107E4C00570031570032570033570034570035571D
:107E5C000036570037570038570039570041570044
:107E6C0042570043570044570045570046570047B8
:107E7C0057004857004957004A57004B57004C577A
:107E8C00004D57004E57004F5700505700515700A8
:107E9C005257005357005457005557005657005728
:107EAC0057005857005957005A570020580031585E
:107EBC0000325800335800345800355800365800FA
:107ECC003758003858003958004158004258004380
:107EDC005800445800455800465800475800485828
:107EEC00004958004A58004B58004C58004D580057
:107EFC004E58004F580050580051580052580053DB
:107F0C0058005458005558005658005758005858A7
:107F1C00005958005A580020590031590032590064
:107F2C003359003459003559003659003759003847
:107F3C0059003959004159004259004359004459DC
:107F4C000045590046590047590048590049590005
:107F5C004A59004B59004C59004D59004E59004F8D
:107F6C005900505900515900525900535900545955
:107F7C000055590056590057590058590059590085
:107F8C005A5900205A00315A00325A00335A0034E0
:107F9C005A00355A00365A00375A00385A00395AA6
:107FAC0000415A00425A00435A00445A00455A00B4
:107FBC00465A00475A00485A00495A004A5A004B40
:107FCC005A004C5A004D5A004E5A004F5A00505A03
:107FDC0000515A00525A00535A00545A00555A0034
:107FEC00565A00575A00585A00595A005A5A0025E6
:037FFC007300000F
:020000040020DA
:08000000FFFFFFFFFFFFFFFF00
:020000040030CA
:0E00000015026A2BFF8991FF00800FE00F4070
:00000001FF
